:020000040800F2
:10000000A81C00207D020008D52200085D220008FF
:10001000D1220008FD1F00085F2E0008000000002C
:10002000000000000000000000000000C9270008D8
:10003000012000080000000071260008B528000813
:10004000970200089702000897020008970200082C
:10005000970200089702000897020008970200081C
:10006000970200089702000897020008970200080C
:1000700097020008970200089702000897020008FC
:1000800097020008970200089702000897020008EC
:1000900097020008970200089702000897020008DC
:1000A00097020008970200089702000897020008CC
:1000B0001929000897020008970200089702000813
:1000C00097020008970200089702000897020008AC
:1000D00097020008E52A000897020008712B000823
:1000E00097020008970200089702000800F002F843
:1000F00000F0B4F80AA090E8000C82448344AAF10E
:100100000107DA4501D100F0A9F8AFF2090EBAE80B
:100110000F0013F0010F18BFFB1A43F0010318473B
:10012000DC350000FC35000010F8013B0A4413F0F8
:10013000030408BF10F8014B1D1108BF10F8015B44
:10014000641E05D010F8016B641E01F8016BF9D133
:10015000002D15D010F8014B03F00C030C2BA1EB74
:1001600004040ABF10F8013BA4EB8314A4EB03249E
:1001700005F1010314F8016B5B1E01F8016BF9D561
:10018000914238BF10F8013BD1D3704700230024BF
:1001900000250026103A28BF78C1FBD8520728BF97
:1001A00030C148BF0B6070476E2900F0078270298C
:1001B00000F04983662903F07181652903F06E819F
:1001C000672903F06B81612903F06A8103681B0AC8
:1001D00028BF41F08001692900F0B481642900F052
:1001E000B181752900F0AE816F2900F0D78278299E
:1001F00000F01583E92900F07182E42900F06E8295
:10020000F52900F06B82EF2900F0D482F82900F084
:1002100014830368DB0928BF41F08001632901F0E2
:100220003B80732901F04080E32901F04B80F329E2
:1002300001F05080002070471FB501F09DF80400C8
:100240000020002103F014F9401C60600020002110
:1002500003F0F8F8E0601FBD10B510BD01F05EF8C6
:100260001146FFF7E9FF02F067FF01F037F903B429
:10027000FFF7F2FF03BC01F03BF90000094880479B
:1002800009480047FEE7FEE7FEE7FEE7FEE7FEE778
:10029000FEE7FEE7FEE7FEE704480549054A064B90
:1002A00070470000B9280008ED000008A8160020DB
:1002B000A81C0020A8180020A81800201CB50C4677
:1002C000064B7B4469460090204600F090F90446B6
:1002D0000020694600F09EF920461CBD4F03000037
:1002E00010B5431C02E010F8011B71B18107FAD16F
:1002F0004FF0013202C88C1A8C4314EAC211F9D0B3
:10030000C01A0A0603D0C01E10BDC01A10BD0A04D0
:1003100001D0801E10BD0902FCD0401E10BD40EA75
:10032000010370B59B072ED14FF00136042A2AD362
:1003300008C810C99D1B9D43121F15EAC61517D08A
:10034000D8B2E1B2401A50EA056110D198B2A1B218
:10035000401A50EA05410AD123F07F4024F07F4142
:10036000401A50EA052102D1180EA0EB146070BDAE
:10037000A342DBD018BA21BA884201D9012070BD4E
:100380004FF0FF3070BD0AB9002070BD10F8013B7E
:1003900011F8014B63B1A3420AD1521E08D010F8E4
:1003A000013B11F8014B1BB1A34201D1521EEDD10B
:1003B000181B70BD4FF000020429C0F0128010F02D
:1003C000030C00F01183CCF1040CBCF1020F18BF38
:1003D00000F8012BA8BF20F8022BA1EB0C0100F0C4
:1003E00003BB5FEAC17C24BF00F8012B00F8012B9E
:1003F00048BF00F8012B70474FF0013C50F8042B28
:1004000051F8043B9A4221D1A2EB0C03934313EA27
:10041000CC1317D150F8042B51F8043B9A4215D154
:10042000A2EB0C03934313EACC130BD150F8042B2B
:1004300051F8043B9A4209D1A2EB0C03934313EA0F
:10044000CC13DBD04FF00000704700BFD01A01BAC8
:10045000B1FA81F101F0180122FA01F0CB40C1F1AB
:100460002001DBB2C0B2C01A2CFA01F3D11A9143B9
:1004700011EAC311E6D1704770477047704770B5F5
:10048000044685690068C10601D5302600E02026B3
:10049000C00707D070BDD4E9012130469047206ADB
:1004A000401C20626D1EF6D570BD70B5044685698E
:1004B0000078C00707D170BDD4E901212020904702
:1004C000206A401C20626D1EF6D570BD09684A0581
:1004D00001D540B27047C905FCD500B27047096824
:1004E0004A0501D5C0B27047C905FCD580B2704736
:1004F00070B50C460546012A05D02878800600D53F
:10050000EA69002302E0012305E05B1C934202D26A
:10051000E05C0028F9D1A869E618C01AA861286A29
:10052000184428622846FFF7AAFF04E0D5E9012114
:1005300014F8010B9047B442F8D32846FFF7B5FFF3
:1005400070BD00002DE9F0410646002410687529B1
:10055000314616A510D0FFF7B9FF002802DA404255
:1005600013A507E031688A0701D512A502E0490703
:1005700004D511A5012401E0FFF7B1FF00210A22F3
:1005800006F1240709E0B0FBF2FCB0FBF2F302FB3A
:100590001C00303078541846491C0028F3D12346FB
:1005A0002A463046BDE8F04100F088BA000000005D
:1005B0002D0000002B0000002000000011680268E0
:1005C000006A530501D508700AE0D30501D50880FB
:1005D00006E0130603D5C217C1E9000200E0086077
:1005E0000120704701694A1C02610878704700B514
:1005F0008FB0CDE901310021059105497944CDE95C
:1006000003101146684600F029F90FB000BD000044
:10061000E5FFFFFF0A6802F8010B0A60704700005F
:100620002DE9FF5F15468A460446DFF8AC80F844A2
:100630000027D8E900103E46CDE9001010E03AF856
:1006400016106A4602A800F049FE411C07D0217826
:10065000890603D5E269391891420DD80744761C02
:100660002078800602D5E069B84205DDAE42E6DBBF
:100670003AF816000028E2D1A069C01BA06120460C
:10068000FFF7FDFED8E90010CDE90010002017E0CB
:100690003AF818106A4602A800F020FEB0F1FF3FB9
:1006A00081460BD000250DF1080B05E0D4E90121AE
:1006B0001BF8050090476D1C4D45F7D308F101006C
:1006C000B0428046E4DB206A384420622046FFF7CF
:1006D000ECFEBDE8FF9F0000722E00002DE9F04106
:1006E0008046D21D22F007020025D2E90002F5293A
:1006F00015A614D0011E72F1000106DA0023D0EB1A
:10070000030063EB020211A608E0D8F800108B0783
:1007100001D50FA602E0490701D50EA60125114615
:10072000002408F1240704E000F083F930323A5540
:10073000641C50EA0102F7D12B463246214640465E
:10074000BDE8F04100F0BAB9000000002D00000043
:100750002B0000002000000030B4002100F1240430
:1007600008E002F00705D208303542EA4372DB08A0
:100770006554491C52EA0305F3D10468002310A212
:10078000250708D504F020040C4304D0C4690123D4
:100790000CA2641EC46130BC00F090B910B50446D0
:1007A00021461068FFF79BFE02462046BDE8104038
:1007B0000023D1E7D21D22F00701D1E90023CBE7C6
:1007C0000000000030000000F0B40D46018809056B
:1007D00002D5214C7C4402E01F4C7C440E340021A5
:1007E00000F1240608E002F00F071209E75D42EA73
:1007F00003721B097754491C52EA0307F3D10278AC
:100800000023120704D5702D06D009B1022311343C
:100810002246F0BC00F052B901231034F8E770B55D
:1008200004460D4621461068FFF759FE0246294648
:100830002046BDE870400023C6E7D21D22F0070322
:10084000D3E90023C0E70368126843F02003036084
:100850000823C3610023B7E7D42C00002DE9F05F23
:10086000894604464FF0000ADFF874B1FB44C0F833
:1008700020A02046E1688847002874D0252806D0AB
:10088000D4E901219047206A401C2062F1E700264C
:100890005F462046E16888472028054607DB312D62
:1008A00005D2781910F8200C08B10643F1E7B0071B
:1008B00001D526F00406C4F81CA00027C4F818A02F
:1008C0002A2D09D0284602F0E0FA38B304EB870855
:1008D000303DC8F8185019E059F8041B204604EBC5
:1008E00087029161E1688847012F054618D1E069C8
:1008F000002820DA26F020061DE0D8F8180000EBCA
:10090000800005EB40003038C8F818002046E16848
:100910008847054602F0B9FA0028EED1012F0AD027
:100920002E2D08D12046E16888477F1C0546022FFE
:1009300046F02006C4DBA069002803DA404246F0F6
:100940000106A061F00701D026F010066C2D0BD037
:10095000682D09D04C2D39D06A2D35D0742D35D065
:100960007A2D33D016E038E0E1682F4620468847DC
:10097000B842054609D16C2F26D04FF48060E1685B
:10098000064320468847054604E06C2F1AD04FF4F2
:10099000807006430DB3A5F14100192802D8203517
:1009A00046F400664A462946204626604E46FFF732
:1009B000FBFB80B101280BD0F61D26F0070000F1EB
:1009C000080956E74020E4E78020D8E70020D6E772
:1009D00006F104094DE7284652E7206ABDE8F09F7A
:1009E000642C00004FF0000200B513469446964672
:1009F000203922BFA0E80C50A0E80C50B1F1200132
:100A0000BFF4F7AF090728BFA0E80C5048BF0CC0DF
:100A10005DF804EB890028BF40F8042B08BF70473D
:100A200048BF20F8022B11F0804F18BF00F8012BAF
:100A3000704730B5B0F10A024FEA900E71F1000331
:100A40004EEA817EB0EB0E0061EB91014FEA101E81
:100A50004EEA017E10EB0E0041EB11114FEA102E11
:100A60004EEA016E10EB0E0041EB11214FEA104EE1
:100A70004EEA014E10EB0E0041EB1141401841F1DE
:100A800000014FEAD00040EA41704FEAD10110EB7B
:100A900080054FEA810444EA907444EB01046D1927
:100AA00044EB0404521BA3414FF0000348BF0A3239
:100AB00000D530BD401C41F1000130BD2DE9F047AB
:100AC0000D4699469246044600F1240801688806BE
:100AD00004D5E06921F01001216000E00120A84266
:100AE00001DD471B00E00027A1697A1902EB09002C
:100AF000081AA0612078C00602D42046FFF7BFFC88
:100B0000002608E0D4E901211AF806009047206A7F
:100B1000401C761C20624E45F4DB2078C0060AD5C6
:100B20002046FFF7ACFC06E0D4E9012130209047D5
:100B3000206A401C2062381EA7F10107F4DC07E0A0
:100B4000D4E9012118F805009047206A401C206272
:100B5000281EA5F10105F3DC2046FFF7A6FC20784E
:100B6000000602D50220BDE8F0870120FBE77047B0
:100B70002DE9FF4F0C461E464FF0FF378BB0D2E9F0
:100B80000001DDF860800A908A46C1F30A5505B974
:100B90003D46002108464FF00000BAF1000F00F476
:100BA000400005DA00EB80004FF4400101EA5000FC
:100BB0004FEA9059B9F1010F00DDB9460A9850EAA1
:100BC0004A000ED044F61050A5F2FF3545432F14CD
:100BD000B8F1000F1ED07542291E1EDDC9F10002BA
:100BE0001CE0B8F1010F4FF0000001D0302103E00C
:100BF000F24305E02154401CB042FBDB30460022AA
:100C0000002121540B99C1F80880C1E900200FB0E0
:100C1000BDE8F08FBD1B6D1CDEE74A4600DA694275
:100C200006A800F0EDFB06AB93E8070003AB83E8F2
:100C3000070050460A9900F062FC8DE80700A0F515
:100C400000501F3800900398002D09DD42F21F016B
:100C50004A46084403A90390684600F0C1FE08E034
:100C6000A0F500504A461F3803A90390684600F0DB
:100C7000CBFE8DE807000004000C03D04FF0FF30DE
:100C8000410800E01046B8F1000F03D000220092A6
:100C900015461EE0751E05D4FFF7CBFE30326255B7
:100CA0006D1EF9D5B3460122084302D000227F1CF5
:100CB00004E02078302801D100227F1E002A099705
:100CC00086D01DE0112D07DAFFF7B3FE30326255F2
:100CD0006D1C50EA0102F5D1084302D00098C8B15A
:100CE0000EE00021681E05E0235C625C6354225420
:100CF000401E491C8142F7DBAB46A81B401E0990F1
:100D0000002004F80B000B98099AC0F80880C0E98D
:100D1000002B7CE711264FF0000859E72DE9F04F32
:100D200088460446D21D22F0070191B0D1E90001A6
:100D3000CDE90A0102F095F802460B98C00F01D0E8
:100D40002D2007E02068810701D52B2002E020211B
:100D500001EAC000032A099001D0072A05DB0346F7
:100D60004146204600F00CFB0BE12078800601D5BF
:100D7000E06900E00620B8F1650F814606D0B8F1C1
:100D8000660F18D0B8F1670F70D131E00020B9F1CB
:100D9000110F009001DB112301E009F101030AAA00
:100DA00001A90CA8FFF7E4FEDDE90C70002609F1AB
:100DB0000105834647E001204B4600904FF0004775
:100DC0000AAA01A90CA8FFF7D3FEDDE90DB00C9922
:100DD0005D46002610B909F101000D18B9EB0500B8
:100DE00003D4C0F1FF3609F10105A5EB09002BE0A2
:100DF000B9F1010F01DA4FF001090020B9F1110F2B
:100E00000090484601DD112300E003460AAA01A92B
:100E10000CA8FFF7ADFEDDE90C704D4600268346B9
:100E2000207800070AD4AB4500DA5D4601A8012D01
:100E300004DD411911F8011C302907D04F4502DAB1
:100E400017F1040F04DA012082460FE06D1EEEE771
:100E5000002F02DCED1B3E4403E0781CA84200DDBD
:100E60007D1CB81B00F1010A4FF0004720780007F5
:100E700003D4AA4501DB4FF0FF3A0021B7F1004F40
:100E80000DF143088DF8431024D002202B23002FAE
:100E900001DA7F422D230A21021EA0F1010000DCAD
:100EA0005FB197FBF1FC97FBF1F201FB1C7C17464D
:100EB0000CF1300C08F801CDEEE7A8F10100037049
:100EC0002188090501D5452100E06521A0F101082F
:100ED00000F8011C09980FA9A1EB0807FF1D00B13C
:100EE0000120411901EBEA70A1693844081A401E3B
:100EF000A0612078C00602D42046FFF7C0FA099806
:100F000028B1D4E901219047206A401C2062207852
:100F1000C00622D52046FFF7B2FA1EE0002E04DB01
:100F2000B34502DD01A8805D00E03020D4E9012155
:100F30009047206A401C2062761CAAF101005FEAFB
:100F4000000A0AD100F018FAC0680168405CD4E9D0
:100F500001219047206A401C2062281EA5F101054E
:100F6000DCDC07E0D4E9012118F8010B9047206A86
:100F7000401C2062381EA7F10107F3DC2046FFF772
:100F800094FA032011B043E62DE9F04F04460D46D4
:100F9000D21D22F0070089B0D0E9009248461746DA
:100FA000394601F05EFF0246F80F01D02D2307E01D
:100FB0002068810701D52B2302E0202101EAC0032C
:100FC0008DF820300BB1012000E00020032A82467A
:100FD00001D0072A04DB2946204600F0D1F93DE183
:100FE0002078800601D40D2500E0E569C7F30A5694
:100FF0000D2D49DA00214FEA175B08464FF000003B
:10100000002F00F4400007DA00EB80004FF44001AD
:1010100000EBD07001EA60008115012901DD4FF07D
:10102000FF3100224FEA850CBCF1180F06D313469E
:10103000ACF118004FF08052C24003E04FF480132F
:1010400023FA0CF30CF10C0CBCF1200F04D3ACF11F
:10105000200C09FA0CF001E007FA0CF000294FF01F
:10106000004801DD18B90FE00ED140450CD319EB53
:1010700002095F4121B9404502D19F4329EA020993
:10108000BBEB175F00D0761C2088000502D57B489B
:10109000784402E079487844193808AA302302F8E5
:1010A0000A30037C0AF10101002E0AF1020A5354AE
:1010B0006A4602DC4FF0300101E04FF031014FF0A1
:1010C00001088DF8001002D0A6F2FF3603E059EABD
:1010D000470100D06A4E002D02DC2178090704D5B3
:1010E0004FF002082E218DF80110C44600210BE0BC
:1010F000C7F303433F01C35C491C6D1E02F808306F
:10110000052908F1010801DA002DF1DC00210CE0CD
:1011100000EB1973491C1B786D1E082902F8083072
:101120004FEA091908F1010801DA002DF0DC2178F5
:10113000890602D514E0A8F10108E04505DD02EBBF
:10114000080111F8011C3029F5D0B8F1000F07DDB6
:1011500002EB080111F8011C2E2901D1A8F10108A8
:10116000002D05DD3E2102F808106D1E08F1010872
:10117000407C002E02F8080008F1010804DA2D2056
:10118000764202F8080002E02B2002F808000A214B
:101190004FF47A70864208F101080BDB96FBF0F3FE
:1011A000303302F8083096FBF0F308F1010800FB39
:1011B000136601E0642E0CDB642096FBF0F3303301
:1011C00002F8083096FBF0F308F1010800FB136603
:1011D00001E00A2E06DB96FBF1F0303002F8080041
:1011E00008F1010896FBF1F001FB1060303002F8C5
:1011F0000800A16908F1010808EB050202EB0A00EA
:10120000081AA0612078C00602D42046FFF737F9FB
:10121000216A08AE01EB0A00206204E0D4E9012152
:1012200016F8010B9047BAF1010AF7D22078C006F0
:1012300002D52046FFF723F96E4609E016F8010BA8
:101240003E280FD0D4E901219047206A401C20623B
:10125000B8F10108F2D22046FFF727F909B00320C0
:10126000BDE8F08F206A2844206203E0D4E9012120
:10127000302090476D1EEBD3F8E700006424000097
:1012800002FCFFFF10B5436913B1AFF3008001E02A
:10129000FFF72EF9012010BD127800F124010A7029
:1012A00000224A700122EDE711684FF0FF32E9E7B2
:1012B00010B5436913B1AFF3008001E0FFF7B0F957
:1012C000012010BD128800F1240182840022C28412
:1012D0000122EDE711684FF0FF32E9E770B51646DD
:1012E0000C46054600F040F8036893F80101012818
:1012F00006D0FF2C0FD8185D68B101202C7070BD8E
:10130000D3F807013246214603F207130344284667
:10131000BDE8704018474FF0FF3070BD754600F0D3
:10132000E3F8AE4605006946534620F007008546BF
:1013300018B020B5FEF7B0FFBDE820404FF0000622
:101340004FF000074FF000084FF0000B21F00701AD
:10135000AC46ACE8C009ACE8C009ACE8C009ACE8F0
:10136000C0098D467047000010B500F005F8001D5B
:1013700010BD00BFFD20000000487047641600202B
:101380002DE9F0411F46044603260168072A01F4AF
:10139000006004DB08B116A505E016A503E008B15E
:1013A00015A500E015A521F010002060A069C01E61
:1013B000A0610FB1401EA0612046FFF760F84FB159
:1013C000D4E9012138469047206A401C2062C01CA5
:1013D000206206E0206AFAE7D4E9012115F8010B42
:1013E0009047761EF8D22046FFF75FF8BDE8F081FF
:1013F0004E414E006E616E00494E4600696E6600B9
:101400002DE9F047814616468AB0334878440DC826
:101410008DE80D0030487844801C03AC0DC884E88A
:101420000D0041F69B300844372190FBF1F290FB10
:10143000F1F5A5F1800501FB12041B3C02D56442C5
:10144000012000E00020DFF890A080460027FA4449
:10145000AAF1BE0A0DE0E00709D03246684607EB64
:1014600047010AEB810100F0CFFA8DE80700641014
:101470007F1C002CEFD1184F7F44AC3F18E0E807E9
:1014800014D007EB04100DF1180A90E80E008AE85A
:101490000E00C068F04201D198190890324606A9A2
:1014A00003A800F0B1FA03AB83E807006D10641CD9
:1014B000002DE4D132466946B8F1000F03A802D0EE
:1014C00000F08EFA01E000F09FFAC9E90001C9F8C6
:1014D00008200AB0BDE8F087782100000446AFF389
:1014E00000802046FEF7C3FE0048704744160020E7
:1014F00001491820ABBEFEE72600020070475FEAF4
:10150000400C08BF91F0000F4FEA8C234FEAC12234
:1015100043EA51514FEA1C5018BF00F5F0404FEA22
:10152000300018BF41F000415FEA6C5C00F0298098
:10153000BCF1FF3F08BF40F080407047130C06BF6E
:1015400012044FF0100C4FF0000C130E04BF1202E7
:101550000CF1080C130F04BF12010CF1040C930FD3
:1015600004BF92000CF1020CD30F04BF52000CF127
:10157000010C11464FF00002A0F11F00A0EB0C007F
:10158000704711F0004F08BF704731F000413FF441
:10159000D5AF0B0C06BF09044FF0100C4FF0000C38
:1015A0000B0E04BF09020CF1080C0B0F04BF09015C
:1015B0000CF1040C8B0F04BF89000CF1020CCB0F53
:1015C00004BF49000CF1010CCCF12003A0EB0C008E
:1015D00022FA03F302FA0CF241EA030100F10100DE
:1015E000704720F07F4C80EA030023F07F47ACEB8C
:1015F000070303F57C5300F0004003F1FF032DE9DE
:1016000080494FEA154B09B44FEA144325EA0B4EC3
:1016100024EA03480FF2042606EB132749083E7814
:101620005FEA320203FB0667C7F5000707FB06F611
:101630004FEA54374FEAD64606F1020607FB066C1E
:10164000CCF1005C4FEA1C472CEA074C07FB06F480
:101650000CFB06F504EB15464FEA961634BF002046
:101660004FF000404FEAD13706FB07FC4FEA1C4C15
:101670000CFB0BF7D21B03FB0CF761EB07010CFB18
:101680000EF7B0EB074072EB17420CFB08F734BFC4
:10169000A2EB0742B2EB074261EB17414FEA0C4461
:1016A0004FEA910706FB07FC4FEA1C4C0CFB0BF7BB
:1016B000B0EBC74072EB573203FB0CF734BFA2EB21
:1016C000C742B2EBC74261EB57310CFB0EF7B0EBF0
:1016D000C70072EB57720CFB08F734BFA2EBC702CE
:1016E000B2EBC70261EB5771039F4FEA816141EA98
:1016F000921104EBCC044FEAD1374FEA826206FB29
:1017000007FC42EA90124FEA80604FEA1C4C0CFB47
:101710000BF7D21B03FB0CF761EB07010CFB0EF779
:10172000B0EB074072EB17420CFB08F734BFA2EB9B
:101730000742B2EB074261EB17414FEA8C554FEA83
:10174000910704EB9C2406FB07FC4FEA1C4C0CFBA6
:101750000BF7B0EBC74072EB573203FB0CF734BF0B
:10176000A2EBC742B2EBC74261EB57310CFB0EF75D
:10177000B0EBC70072EB57720CFB08F734BFA2EB5B
:10178000C702B2EBC70261EB577115EB4C254FEA6C
:10179000816141EA92114FEA82624FEAD13742EA0F
:1017A000901206FB07FC44F100044FEA80604FEA08
:1017B0001C4C0CFB0BF7D21B03FB0CF761EB070176
:1017C0000CFB0EF7B0EB074072EB17420CFB08F76F
:1017D00034BFA2EB0742B2EB074261EB174115EBB6
:1017E0001C154FEA813141EA92414FEA823242EAC6
:1017F00090424FEA80304FEA0C7644F1000448EA08
:1018000003434EEA0B484FF0000EB2EB080C71EBAD
:10181000030724BF624639464EEB0E0E4FF0000B15
:101820000018524149414BEB0B0BB2EB080C71EB2A
:1018300003077BF1000B24BF624639464EEB0E0EC8
:101840004FF0000B0018524149414BEB0B0BB2EB30
:10185000080C71EB03077BF1000B24BF624639468D
:101860004EEB0E0E51EA020718BF46F0010616EBCA
:101870000E7655F1000254F1000103D5BDE889014F
:10188000BDE80088BDE88901BDE80048B6195241AD
:1018900041EB0101A3F10103704780807F7E7D7CD5
:1018A0007B7A7978777676757473727171706F6EF2
:1018B0006E6D6C6C6B6A6A6968686766666564649D
:1018C000636362616160605F5F5E5E5D5D5C5C5B27
:1018D0005B5A5A5959585857575656555555545496
:1018E000535352525251515050504F4F4F4E4E4DF4
:1018F0004D4D4C4C4C4B4B4B4A4A4A494949484840
:10190000484747474746464645454544444444437F
:1019100043434342424242414141002B26D4770097
:1019200021D01CB54FEA370703B44FF010004FF039
:1019300010014FF000000FBCBDE810400BF1010B8F
:10194000BBF1010F08BF5FEA170722BF12F10102C6
:1019500011F101014FF0004143F1000300F000409C
:1019600043EA00007047F9D35708DAE746EA06462B
:1019700013F1400F4FEA16461FDD13F1200FDFBFB2
:1019800016430A46002120335B42C8D0C3F120072A
:1019900046EA064602FA07F74FEA164646EA0706FF
:1019A000C3F1200722FA03F201FA07F721FA03F143
:1019B0004FF0000342EA0702B1E746EA020646EAB0
:1019C00006464FEA164646EA0106BCBF46EA064608
:1019D000360C4FF000034FF000024FF000019EE77D
:1019E0002DE9C048934630B491E8380007C831EA81
:1019F000400C48BF34EA430C03D5FFF7F2FDFFF774
:101A00008CFFF0BCBDE800882DE9C048934630B497
:101A100091E8380007C810F0804F08BF13F0804FDE
:101A200003D100F005F8FFF778FFF0BCBDE80088AF
:101A300020F07F4780EA030023F07F4C07EB0C0384
:101A4000A3F57C5300F00040A3F1FE0392F0000FD9
:101A500000F0B38095F0000F00F077802DE9014988
:101A60004FEA11404FEA144621EA004800FB06FC09
:101A700024EA064708FB06F607FB08F800FB07F711
:101A800018EB06484CEB164C4FEA124B18EB074884
:101A90004FEA15464CEB174022EA0B4E0BFB06FCB7
:101AA00025EA06470EFB06F607FB0EFE0BFB07F7C3
:101AB0001EEB064E4CEB164C4FF000061EEB074E8D
:101AC0004CEB174B18EB0B0840F1000018EB0E0B1A
:101AD00058EB000840F100008F1A4FF000013CBFA6
:101AE000C943661B14BFB5EB040C00213CBFC943BE
:101AF000F61B4FEA17444EEA8E0E27EA04454FEADA
:101B00001C4704FB07622CEA074C05FB07F70CFB9C
:101B100005F604FB0CFC16EB074642EB174216EBEE
:101B20000C4642EB1C421BEB060658EB02024141FD
:101B300046EA9E0601D5BDE80189B619524141EB3E
:101B40000101A3F10103BDE801894FEA14454FEA01
:101B5000114724EA054621EA074C05FB07F406FB7A
:101B600007F70CFB06F105FB0CFC11EB074144EBFE
:101B700017444FEA124711EB0C4144EB1C4422EA94
:101B8000074C05FB07F206FB07F70CFB06F605FB07
:101B90000CFC16EB074642EB174216EB0C4642EBE9
:101BA0001C456A1854F1000148BF7047B6195241EC
:101BB00041EB0101A3F10103704795F0000F37D00D
:101BC0004FEA11424FEA144721EA024624EA074C41
:101BD00002FB07F106FB07F70CFB06F402FB0CFC0B
:101BE00014EB074441EB17414FEA154714EB0C4443
:101BF00041EB1C4125EA074C02FB07F506FB07F702
:101C00000CFB06F602FB0CFC16EB074645EB1745F2
:101C100016EB0C4645EB1C42121951F1000148BF6E
:101C20007047B619524141EB0101A3F1010370471E
:101C30004FEA14454FEA114724EA054621EA074CCA
:101C400005FB07F106FB07F70CFB06F24FF0000659
:101C500005FB0CFC12EB074241EB174112EB0C4267
:101C600051EB1C4148BF7047921841EB0101A3F1B1
:101C70000103704710B50222C9A1CA48FEF74FFB05
:101C8000002870D1002496E0C64908190122C649EF
:101C90000968FEF744FBA0B900BF2046611CCCB226
:101CA000C049085C3D28F8D10846005D312803D1C1
:101CB0000120BE49087002E00020BC490870601C89
:101CC000C4B2B84908190122B9490968FEF727FBCF
:101CD000A0B900BF2046611CCCB2B249085C3D28C7
:101CE000F8D10846005D312803D10120B1490870C0
:101CF00002E00020AD490870601CC4B2A94908196F
:101D00000122AD490968FEF70AFBA0B900BF2046D1
:101D1000611CCCB2A349085C3D28F8D10846005D9F
:101D2000312803D10120A549087002E00020A34911
:101D30000870601CC4B29B4908190122A0490968B7
:101D4000FEF7EDFAA8B900BF2046611CCCB2954958
:101D5000085C3D28F8D10846005D312804D10120F7
:101D60009849087003E02FE0002096490870601C35
:101D7000C4B28C490819012293490968FEF7CFFAC9
:101D8000A0B900BF2046611CCCB28649085C3D2842
:101D9000F8D10846005D312803D101208B49087035
:101DA00002E0002089490870601CC4B24FF416712B
:101DB0007C48FEF7FFFA2046611CCCB27949085CEA
:101DC00000287FF461AF00BF022281A17548FEF7B1
:101DD000A6FA00287ED10024D8E0012001F05CF8AA
:101DE0007049081901227B490968FEF798FA28BB57
:101DF00000BF2046611CCCB26A49085C3A28F8D181
:101E0000601C085C2C280AD0601C085C3038095D16
:101E1000303901EB810100EB41006F4908706149E5
:101E2000601C085C2C2804D10846005D30386A49E3
:101E30000870012001F030F8A01CC4B259490819FB
:101E4000012266490968FEF76AFAB8B900BF204660
:101E5000611CCCB25349085C3A28F8D1601C085C7C
:101E60003038095D303901EB810100EB41005C49FC
:101E70000870012001F010F8A01CC4B249490819EB
:101E8000012258490968FEF74AFAB8B900BF20464E
:101E9000611CCCB24349085C3A28F8D1601C085C4C
:101EA0003038095D303901EB810100EB41004E49CA
:101EB0000870012000F0F0FFA01CC4B239490819D5
:101EC00001224A490968FEF72AFA60BB00BF204692
:101ED000611C00E063E0CCB23249085C3A28F6D1DC
:101EE000012000F0D9FF2F48005D30384FF47A719F
:101EF00048432C4A611C515C303901EBC10202EBB2
:101F0000011100EB8101274AA01C105C303800EB66
:101F1000800001EB4001E01C105C3038084434497B
:101F20000880201DC4B21F490819012231490968DF
:101F3000FEF7F5F950BB00BF2046611CCCB2194931
:101F4000085C3A28F8D1012000F0A6FF1548005D92
:101F500030384FF47A714843124A611C515C303971
:101F600001EBC10202EB011100EB81010D4AA01C43
:101F7000105C303800EB800001EB4001E01C105C8D
:101F8000303808441C490880201DC4B22046611C1A
:101F9000CCB20449085C00287FF41FAF00BF10BD1D
:101FA000733A0000EC1300205C00002020000020A9
:101FB0006400002022000020600000202300002098
:101FC00068000020210000206C0000202400002078
:101FD000763A000048000020020000205000002057
:101FE00006000020540000200700002058000020B8
:101FF000000000204C0000200400002000BFFEE78D
:102000007047000000B589B04FF416711848FEF70C
:10201000D1F91848007818490968184A1278184BFD
:102020001B68CDE90432CDE906101648028816482F
:10203000006816490988164B1B68CDE90031CDE9C7
:1020400002021448037814480268144801681448CE
:1020500001F018F9C82000F01FFF12A10448FEF794
:10206000CBF910B9012009B000BD0020FBE700004A
:1020700094110020070000205400002006000020DA
:102080005000002000000020580000200400002024
:102090004C000020020000204800002040000020EA
:1020A000A03500084552524F520000002DE9F04182
:1020B000024600250026002000230024002791F876
:1020C00003C00CF00F0591F803C00CF0100CBCF12C
:1020D000000F03D091F802C04CEA050591F800C04A
:1020E000BCF1000F31D0146800202BE04FF0010C40
:1020F0000CFA00F3B1F800C00CEA03069E4220D1AE
:1021000083004FF00F0C0CFA03F7BC4305FA03FCF5
:102110004CEA040491F803C0BCF1280F06D14FF03B
:10212000010C0CFA00FCC2F814C00AE091F803C0DC
:10213000BCF1480F05D14FF0010C0CFA00FCC2F8BD
:1021400010C0401C0828D1D31460B1F800C0BCF105
:10215000FF0F34DD546800202EE000F1080C4FF032
:10216000010808FA0CF3B1F800C00CEA03069E421D
:1021700021D183004FF00F0C0CFA03F7BC4305FA92
:1021800003FC4CEA040491F803C0BCF1280F05D10C
:1021900000F1080C08FA0CF8C2F8148091F803C09A
:1021A000BCF1480F07D100F1080C4FF0010808FA04
:1021B0000CF8C2F81080401C0828CED35460BDE84B
:1021C000F0810000F0B50A4600230024002100251C
:1021D00000F00046B6F1004F02D11D4EF16901E05A
:1021E0001B4E7168C0F3034583B200F44016B6F588
:1021F000401F08D121F07061154E766826F0706698
:10220000134F7E6012E000F48016B6F5801F06D1F1
:10221000032606FA05F4A14341F0706106E0460D7D
:10222000360103FA06F6B14341F0706122B1460D62
:10223000360103FA06F6314300F00046B6F1004FCE
:1022400002D1034EF16101E0014E7160F0BD00006A
:1022500000000140416170470161704700BFFEE727
:102260004CF6CC4001490860704700000030004047
:1022700010B500F013F810BD70B505460C4645F2D8
:10228000555000F01FF8284600F010F8A0B200F0FA
:1022900013F800F003F8FFF7E3FF70BD4AF6AA2039
:1022A0000149086070470000003000400149486063
:1022B000704700000030004001498860704700000E
:1022C00000300040014908607047000000300040C5
:1022D00000BFFEE77047000070B5002100230F2209
:1022E000C47804B3154C246804F4E064C4F5E064D5
:1022F000210AC1F10403CA40447804FA03F1847846
:102300001440214309010E4C0678A155047804F0CD
:102310001F050124AC4005786D11AD0005F1E025E5
:10232000C5F8004109E0047804F01F050124AC4021
:10233000044D0678761145F8264070BD0CED00E09E
:1023400000E400E080E100E002490143024A11603C
:10235000704700000000FA050CED00E070B50024A5
:1023600018E004F1B000002100F020F90021084637
:1023700000F01CF90021102000F018F9002505E0FC
:102380000121002000F012F9681CC5B2802DF7DB96
:10239000601CC4B2082CE4DB70BD000010B5402105
:1023A0000748FFF759FF80210548FFF755FF8021B7
:1023B0000348FFF74FFF40210148FFF74BFF10BDD7
:1023C000000C014010B540210548FFF745FF802172
:1023D0000348FFF73FFF80210148FFF73DFF10BD95
:1023E000000C014010B540210348FFF735FF4021A4
:1023F0000148FFF72FFF10BD000C014008B5012177
:10240000092000F057F901214248FFF7DBFEC02008
:10241000ADF8000010208DF8030003208DF80200B5
:1024200069463D48FFF742FEC0213B48FFF714FFD5
:102430004FF4487000F030FD0021AE2000F0B6F8F7
:102440000021084600F0B2F80021102000F0AEF89C
:102450000021402000F0AAF80021B02000F0A6F8EA
:102460000021812000F0A2F80021FF2000F09EF85A
:102470000021A12000F09AF80021A62000F096F893
:102480000021A82000F092F800213F2000F08EF8F3
:102490000021C82000F08AF80021D32000F086F83F
:1024A0000021084600F082F80021D52000F07EF8D7
:1024B0000021802000F07AF80021D82000F076F882
:1024C0000021052000F072F80021D92000F06EF8FC
:1024D0000021F12000F06AF80021DA2000F066F80F
:1024E0000021122000F062F80021DB2000F05EF8ED
:1024F0000021302000F05AF800218D2000F056F81D
:102500000021142000F052F80021AF2000F04EF816
:1025100008BD000000023000000C014070B5044608
:102520000D4605F1B000002100F040F8102141EA0D
:102530001410002100F03AF804F00F00002100F020
:1025400035F870BD2DE9F04180460E46154600274E
:1025500031464046FFF7E2FF00240AE0124A02EB50
:102560008511085D012100F021F8781CC7B2601CBC
:10257000C4B2102CF2DB701CC1B24046FFF7CEFF94
:1025800000240CE06900491C074A02EB4111085D78
:10259000012100F00BF8781CC7B2601CC4B2102CEB
:1025A000F0DBBDE8F08100008900002070B5044632
:1025B0000D461DB1E0B200F045F802E0E0B200F0D7
:1025C0002BF870BD2DE9F04105462C4640211148FD
:1025D000FFF740FE002619E0274607F08007802F0E
:1025E00004D180210B48FFF737FE03E08021094822
:1025F000FFF730FE6006040E40210648FFF72CFE70
:1026000040210448FFF726FE701CC6B2082EE3DB0B
:10261000BDE8F081000C014010B50446FFF7BEFE96
:102620007820FFF7CFFFFFF7DDFE0020FFF7CAFF9E
:10263000FFF7D8FE2046FFF7C5FFFFF7D3FEFFF7F1
:10264000C1FE10BD10B50446FFF7A8FE7820FFF7C5
:10265000B9FFFFF7C7FE4020FFF7B4FFFFF7C2FE48
:102660002046FFF7AFFFFFF7BDFEFFF7ABFE10BD43
:102670007047000029B1064AD2690243044BDA616F
:1026800004E0034AD2698243014BDA6170470000DB
:102690000010024029B1064A12690243044B1A6134
:1026A00004E0034A12698243014B1A61704700003B
:1026B0000010024029B1064A92690243044B9A6114
:1026C00004E0034A92698243014B9A61704700001B
:1026D0000010024029B1064AD2680243044BDA6076
:1026E00004E0034AD2688243014BDA60704700007D
:1026F0000010024030B500210022002400232D4D9F
:102700006D6805F00C0121B1042905D0082923D1F9
:1027100005E0294D056022E0274D05601FE0254DAD
:102720006D6805F47012234D6D6805F48034022540
:1027300005EB92421CB9214D554305600BE01D4D40
:102740006D6805F400351DB11C4D5543056002E070
:10275000194D5543056002E0174D056000BF00BFED
:10276000144D6D6805F0F0010909154D6B5C0568A5
:10277000DD4045600F4D6D6805F4E061090A104DBC
:102780006B5C4568DD4085600A4D6D6805F46051FD
:10279000C90A0B4D6B5C4568DD40C560054D6D6831
:1027A00005F44041890B074D6B5CC568B5FBF3F53B
:1027B000056130BD0010024000127A0000093D00A2
:1027C0000900002019000020704710B500F002F841
:1027D00010BD00000CB50020019000903348006847
:1027E00040F480303149086000BF3048006800F490
:1027F000003000900198401C0190009818B9019891
:10280000B0F5A06FF1D12948006800F4003010B194
:102810000120009001E0002000900098012843D1A1
:102820002348006840F0100021490860084600680D
:1028300020F0030008600846006840F002000860CD
:102840001A48406819494860084640684860084688
:10285000406840F4806048600846406820F47C107E
:1028600048600846406840F4E81048600846006840
:1028700040F08070086000BF0C48006800F00070F5
:102880000028F9D00948406820F003000749486053
:102890000846406840F00200486000BF03484068B6
:1028A00000F00C000828F9D10CBD00000010024017
:1028B000002002407047000010B51348006840F047
:1028C00001001149086008464068104908400E4957
:1028D0004860084600680E4908400B4908600846F1
:1028E000006820F4802008600846406820F4FE005C
:1028F00048604FF41F008860FFF767FF4FF00060EB
:102900000449086010BD0000001002400000FFF8FC
:10291000FFFFF6FE08ED00E010B50121880700F08A
:102920002FF8B0B10121880700F01BF809480078A2
:10293000401C0849087008460078062805D1012087
:10294000054908600020034908700121880700F04C
:1029500008F810BD8800002084000020CA430282CD
:102960007047CA430282704721B1028842F00102D7
:10297000028004E002884FF6FE731A40028070471E
:1029800030B50246002000230024158A05EA010321
:10299000958905EA010413B10CB1012000E0002083
:1029A00030BD1AB183890B43838102E083898B4355
:1029B0008381704701894FF6F87211400181704799
:1029C000002202881D4B98420ED01D4B98420BD01E
:1029D000B0F1804F08D01B4B984205D01A4B98425B
:1029E00002D01A4B984204D14FF68F731A404B888D
:1029F0001A43174B984207D0164B984204D04FF613
:102A0000FF431A40CB881A4302808B8883850B884A
:102A100003850A4B98420BD0094B984208D00E4BC5
:102A2000984205D00D4B984202D00D4B984201D1EF
:102A30000B7A03860123838270470000002C01403B
:102A4000003401400004004000080040000C004039
:102A500000100040001400400040014000440140CC
:102A6000004801401FB501210846FFF703FE4FF063
:102A70008040FFF79FFF0020ADF80A00ADF8060088
:102A80004CF24F30ADF8080041F61F40ADF804009D
:102A900000208DF80C0001A94FF08040FFF790FF57
:102AA00001218807FFF75AFF012211469007FFF71F
:102AB00078FF4FF4A060FFF747FC1C208DF8000062
:102AC00001208DF8030003208DF8010001208DF80E
:102AD00002006846FFF700FC01218807FFF744FF6A
:102AE0001FBD000010B540F225511E4800F0F3F85C
:102AF00050B31C4800F0AAF9C1B21B480278007814
:102B0000401C194B18701948815418460078801ED3
:102B10001649085C0D2801D1012000E0002012496F
:102B20000978491E114A515C0A2901D1012100E0AE
:102B30000021084348B100210B480078801E0B4A51
:102B400011540020084908700AE040F22441054869
:102B500000F0C1F820B1034800880248001D008839
:102B600010BD0000003801407C000020EC13002064
:102B700010B540F22551204800F0ADF8002839D0BA
:102B80001D4800F063F9C1B21C4802780078401C6F
:102B90001A4B18701A48815418460078801E18493C
:102BA000085C0D2801D1012000E0002013490978BC
:102BB000491E134A515C0A2901D1012100E000217C
:102BC000084360B100210D480078801E0C4A115462
:102BD00000200A49087001200A4908700AE040F202
:102BE0002441054800F077F820B1034800880248E6
:102BF000001D008810BD0000004800407B00002040
:102C0000941100208200002021B1828942F40052F8
:102C1000828104E082894DF6FF731A4082817047F9
:102C200010B504462048844209D101218803FFF7EA
:102C300051FD00214FF48040FFF74CFD32E01B486E
:102C4000844209D101214804FFF724FD00214FF4FB
:102C50000030FFF71FFD25E01548844209D101210E
:102C60008804FFF717FD00214FF48020FFF712FDC5
:102C700018E01048844209D10121C804FFF70AFD79
:102C800000214FF40020FFF705FD0BE00A488442C5
:102C900008D101210805FFF7FDFC00214FF4801049
:102CA000FFF7F8FC10BD0000003801400044004070
:102CB00000480040004C0040005000400246002008
:102CC000B1F5007F00D100BF13880B400BB101208C
:102CD00000E00020704770B5024600240023002564
:102CE000002040F66A16B14200D100BFC1F3421580
:102CF00001F01F03012606FA03F3012D02D1968984
:102D0000334006E0022D02D1168A334001E0968A54
:102D100033400C12012606FA04F41688344013B12D
:102D20000CB1012000E0002070BDF0B50346002486
:102D300000260025002040F66A17B94200D100BFE6
:102D40001846C1F3421401F01F06012707FA06F5E1
:102D5000012C01D10C3004E0022C01D1103000E034
:102D600014301AB107682F43076002E00768AF43C9
:102D70000760F0BD2DE9F04786B005460E460024F9
:102D8000A24600BFA1460027B08900B100BF2F4670
:102D90002C8A4CF6FF700440F08804432C82AC89E6
:102DA0004EF6F3100440B088318908437189084316
:102DB0000443AC81AC8A4FF6FF400440B089044321
:102DC000AC8201A8FFF796FC1F48874202D1DDF8CC
:102DD00010A001E0DDF80CA0A88900F4004040B18B
:102DE0000AEBCA0000EB0A1031684900B0FBF1F8A9
:102DF00007E00AEBCA0000EB0A1031688900B0FB5B
:102E0000F1F86420B8FBF0F004012009642101FB13
:102E10001089A88900F4004040B1322000EBC900BD
:102E2000B0FBF1F000F00700044308E0322000EBB3
:102E300009106421B0FBF1F000F00F0004432C8175
:102E400006B0BDE8F08700000038014001468888E0
:102E5000C0F308007047C1F308028280704700BFCA
:102E6000FEE7490050EAC12018BF04204A0D18BFF0
:102E700040F0010040F2FF72B2EB515F08BF40F03A
:102E80000200012808BF0520704730380A2801D207
:102E9000012070470020704710B50446B4F5E96F73
:102EA00002DB4FF4E96000E02046044642F228309D
:102EB00060434FF0E02148610020886101200861F3
:102EC00000BF4FF0E020006900F480300028F8D007
:102ED0004FF0E020006920F001004FF0E021086190
:102EE000FFF7C6F910BD000010B54FF416713A484F
:102EF000FDF760FA39A000F0C5F94FF4FA70FFF75A
:102F0000CBFF39A000F0BEF94FF47A70FFF7C4FF91
:102F100039A13148FDF770FA08B1002010BD4FF417
:102F200016712D48FDF746FA3448026834480168A6
:102F300034A000F0A7F94FF47A70FFF7ADFF2EA18F
:102F40002548FDF759FA08B10220E7E74FF416715A
:102F50002148FDF72FFA31480368314802683148AB
:102F6000016831A000F08EF94FF47A70FFF794FFFA
:102F700021A11948FDF740FA08B10320CEE74FF42C
:102F800016711548FDF716FA3248016832A000F0B4
:102F900079F94FF47A70FFF77FFF17A10E48FDF71C
:102FA0002BFA08B10420B9E73248016832A000F0DA
:102FB00069F94FF47A70FFF76FFF0FA10648FDF72C
:102FC0001BFA08B10520A9E74FF416710248FDF776
:102FD000F1F90120A2E700009411002041542B5286
:102FE00053540D0A0000000041542B43574D4F44E9
:102FF000453D310D0A0000004F4B00002C00002021
:103000002800002041542B43574A41503D2225734C
:10301000222C222573220D0A000000003800002017
:10302000340000203000002041542B4D51545455A1
:103030005345524346473D302C312C222573222CD8
:10304000222573222C222573222C302C302C222274
:103050000D0A00003C00002041542B4D51545443B4
:103060004F4E4E3D302C222573222C313838332CD4
:10307000310D0A004400002041542B4D515454534B
:1030800055423D302C222573222C310D0A000000C0
:1030900000B589B04FF416711848FDF78BF9184840
:1030A000007818490968184A1278184B1B68CDE94E
:1030B0000432CDE906101648027816480068164911
:1030C0000978164B1B68CDE90031CDE9020214489E
:1030D00003781448026814480168144800F0D2F8D4
:1030E000C820FFF7D9FE12A10448FDF785F910B9F1
:1030F000012009B000BD0020FBE700009411002072
:10310000240000206C000020210000206800002026
:103110002300002060000020220000206400002026
:10312000200000205C00002040000020A0350008A6
:103130004552524F52000000FFF794FCFFF75EF932
:10314000FFF70CF9002211461046FFF7FBF90222A7
:1031500000211020FFF7F6F9012200214020FFF79F
:10316000F1F9022200215020FFF7ECF9052202219B
:103170000020FFF7E7F9062202211020FFF7E2F90D
:10318000042202214020FFF7DDF90C220221502009
:10319000FFF7D8F9112204210020FFF7D3F91222FA
:1031A00004211020FFF7CEF9132204212020FFF77D
:1031B000C9F9142204213020FFF7C4F94FF41C711F
:1031C0000520FFF759F84FF4E13000F083F84FF491
:1031D000E13000F0DBF8FFF787FE114908701DE0D1
:1031E00010480078012806D10F4910A000F022F8FD
:1031F00000200C490870FEF73DFD0120FFF74CFE52
:103200000B48006850B1FEF7FDFE4FF4FA70FFF76F
:1032100043FEFFF73DFF002005490860E0E700009E
:103220000800002082000020941100202573000077
:10323000840000200FB438B505A800900F48009A0C
:103240000499FDF73BF8002000900C48FDF748F882
:1032500085B200240DE000BF40210948FFF72EFD94
:103260000028F9D00548015D0548FFF7F4FD601C12
:1032700084B2AC42EFDB38BC5DF814FB3C0F00209D
:10328000003801400FB438B505A800900F48009AE7
:103290000499FDF713F8002000900C48FDF720F882
:1032A00085B200240DE000BF40210948FFF706FD6C
:1032B0000028F9D00548015D0548FFF7CCFD601CEA
:1032C00084B2AC42EFDB38BC5DF814FBE40C0020A8
:1032D0000048004010B586B0044601210420FFF7E5
:1032E000E9F901218803FFF7E5F92548FFF798FC84
:1032F0004FF40070ADF8100003208DF81200182074
:103300008DF8130004A91F48FEF7D0FE4FF480602B
:10331000ADF8100004208DF8130004A91948FEF739
:10332000C5FE00940020ADF80400ADF80600ADF82D
:103330000800ADF80C000C20ADF80A0069461048F2
:10334000FFF718FD01210E48FFF75EFC012240F255
:1033500025510B48FFF7E9FC25208DF814000220C9
:103360008DF8150003208DF8160001208DF8170048
:1033700005A8FEF7B1FF00200349088006B010BD84
:1033800000380140000801408000002010B586B0E0
:10339000044601210820FFF78DF901218804FFF779
:1033A00069F92548FFF73CFC4FF48060ADF8100048
:1033B00003208DF8120018208DF8130004A91F486F
:1033C000FEF774FE4FF40060ADF8100004208DF895
:1033D000130004A91948FEF769FE00940020ADF817
:1033E0000400ADF80600ADF80800ADF80C000C20A4
:1033F000ADF80A0069461048FFF7BCFC01210E48F1
:10340000FFF702FC012240F225510B48FFF78DFC2B
:1034100027208DF8140002208DF8150003208DF868
:10342000160001208DF8170005A8FEF755FF0020B3
:103430000349088006B010BD00480040000C014060
:103440007E00002010B500290AD00878002807D097
:1034500005487844FCF7D0FF002801D0002010BDBB
:103460000248784410BD0000CA020000C2020000F9
:1034700010B500290AD00878002807D005487844FC
:10348000FCF7BAFF002801D0002010BD02487844A4
:1034900010BD0000BA020000B2020000FDF73EBC01
:1034A000FDF772BD00000000000000003031323333
:1034B0003435363738394142434445464030580068
:1034C000303132333435363738396162636465669A
:1034D00040307800040000080000000000000002F6
:1034E000000100001030313233343536373839615D
:1034F0006263646566787000303132333435363754
:1035000038394142434445465850000002400000CB
:10351000000000A00000000005400000000000C8FE
:10352000000000000C4000000000409C0000000073
:10353000194000000020BCBE000000003440000024
:10354000BFC91B8E00000004B5400000504BCFD017
:103550006607E2CF010000006C4100003E8251AAE4
:10356000DFEEA73401000000D9420000DCB5A0E284
:103570003A301F97FFFFFFFFB4450000FD25A0C8AC
:10358000E9A3C14FFFFFFFFFFF3F000000000080E5
:1035900000000000FF3F000000000080000000006D
:1035A00041542B4D5154545055423D302C222573DB
:1035B000222C225C7B5C2225735C223A25645C2CE5
:1035C0005C2225735C223A25645C2C5C2225735CAA
:1035D000223A25645C2C5C2225735C223A25645CCB
:1035E0002C5C2225735C223A25647D222C302C3001
:1035F0000D0A000039696864687677716476716EC7
:10360000686E71310000000039393939393939397A
:10361000390000006534353539313964623935395E
:103620003431313661326461383339656431616116
:1036300033343664000000004C45445F7374617499
:1036400065000000636F6C645F73746174650000F3
:10365000737465616D5F73746174650066616E7328
:103660005F73746174650000686F745F7374617474
:1036700065000000636F325F76616C756500000065
:10368000736F696C5F76616C7565000068756D5F5E
:1036900076616C756500000074656D705F76616CB5
:1036A000756500006C696768745F76616C756500AC
:1036B000617474726962757465732F7075736800D4
:1036C00048306F42625A77486D6A0000677A2D333E
:1036D0002D6D7174742E696F742D6170692E636F16
:1036E0006D00000061747472696275746573000026
:1036F0006D616C692E6170706C790000483800084B
:10370000000000208C0A000028010008083D000885
:103710008C0A00201C1200008C0100081C00000014
:1037200043000000F8FFFFFF0C0000000E00000047
:103730000F0000002E0000001001000043000000F8
:10374000F8FFFFFF004040404040404040404141C2
:103750004141414040404040404040404040404066
:103760004040404040050202020202020202020200
:1037700002020202022020202020202020202002FD
:10378000020202020202909090909090101010108D
:103790001010101010101010101010101010101029
:1037A00002020202020288888888888808080808BD
:1037B0000808080808080808080808080808080889
:1037C00002020202400000000000000000000000B1
:1037D00000000000000000000000000000000000E9
:1037E00000000000000000000000000000000000D9
:1037F00000000000000000000000000000000000C9
:1038000000000000000000000000000000000000B8
:1038100000000000000000000000000000000000A8
:103820000000000000000000000000000000000098
:103830000000000000000000000000000000000088
:103840000000000000000000A200012005010203AA
:103850000404900906070809020406081B1006F074
:1038600036000808041214041006F4350008C008D5
:1038700012CC0C12E40812B00412800812A4041234
:103880009804128C1012740412380812440C126836
:1038900004125C0412504402160001200910600258
:1038A0008C0000FE92010211FE20100A04047E0129
:1038B000407E42427E02000414427E4040413F016D
:1038C0001740000B104448507F40407F5048444010
:1038D000200B0000FC242424FC25262408F2041ECE
:1038E000F01040308F80844C55252525554C808024
:1038F0008020400620104C47540100051AD40404CF
:1039000000010005110F3040F08022400132FF0617
:1039100001161E11BD510801113E1005424458C048
:1039200020000511C0504846201007808040201814
:1039300007C9223F47021078FF040E10FE424242A0
:10394000FE0042A29E82A2C2BE1E400B806F0808EB
:1039500028CF00002FC808E5A0040F1002E22222A1
:103960003E00809E9292F292929E2004104F00435D
:1039700082423E40474444447F444454E78004101C
:1039800012100C4424140405060404142444140CDA
:103990005F124101227F050512610540C02804FE27
:1039A00012127D13FF910106101040000E11601FCE
:1039B00080805F4020100E1010205FC0100A10FFA2
:1039C000100082BAEABA83040A1082350410100883
:1039D000180F04484A2AFF8A4A1A2F5A8A88E02474
:1039E000067000FF1008C536FAC9011080180618C5
:1039F000070810FF1D04061141424C40FF4010070C
:103A0000055555D5057F060711550540100D1010B9
:103A1000108AA96B352525ABE9080C0D1380031816
:103A200007201808C838CF200E1498C0030C0B507C
:103A3000040201FF4021060A1120800315228101A2
:103A40000D126004C1010510600C0E1124236AAA36
:103A50002AAA6A2A2A2AEA0202A0041006111515C7
:103A600015FF041B1110000E11F821032F60F85FE1
:103A70000316FFE30A11084012011B1600013D7FE7
:103A8000030D1180031C0604E45C44C440030C06CF
:103A900011F0909F90904003041010013F10107F90
:103AA000201806914C300F304884801C0994533202
:103AB0001E325210001F050F13427E630543FF495B
:103AC000010E12FF950400101108CC4A49484ACC57
:103AD00018007F88888482E03E00091512125292F5
:103AE0007F00007E201005FC8484FCC61624C207DB
:103AF0001124E40111C0040C143F0020134A827EFB
:103B0000020A1320BE2004C839CE07061188C21548
:103B10005516025C28040003043F0D11C1031C0A62
:103B20008444340F44847C007C630406107C9F0C26
:103B3000101144442424140C04FF040C14242444C1
:103B4000446205040C1222322AA6A26221110981C4
:103B5000013E10064222130B42BD0C0611020A124E
:103B6000234640040C0E1030AC63300088C8A8997E
:103B70008E88A8C8A0033C0A226722121280403017
:103B80000F82050E1271A206080A111464040CB407
:103B9000020242337F10040040419A0C0A110503CF
:103BA000FF0305091121410007080E1010D0FF90F6
:103BB0000010919690F0909493E01B040380130101
:103BC000040122FF050914C008091504E4A4A4BFD8
:103BD000A4A4E4C01D3C07224A0106127F802140B4
:103BE0000C0911404848E85F484848A0063D0003DA
:103BF00008091300020B1222D20A069F3C04FC049F
:103C0000D47D050C05107F84C53680070C0F108805
:103C100066010063828292AB8482C1022481062EF7
:103C2000807B060C0812929EE0809EB2D280060C29
:103C300010120808F4949292F10001F2929494F810
:103C40000840071D3C0522C2050F13424221060809
:103C50000B1170282423202020242830FE0C101063
:103C600000C808090EE808405E5050DF50505EA0C2
:103C7000070C0E11206F201C131000FE027F027E25
:103C800082A1081DC0071809CC000444645C47F4F5
:103C9000C10511A0180540201F20DB3D4007091178
:103CA000C01DA0050C0B11FF1050445465C64464A0
:103CB00054E008080F120444827F0182824A56238E
:103CC00022524E826213F888010C09120808FF087C
:103CD000090AC808C0060C0D120010201F804021E0
:103CE00016182641F8C0031EF8BB0321860F1110D9
:103CF000101F070C0F131030101F088848300E01DA
:083D00004080403F2009000053
:04000005080000ED02
:00000001FF
