:020000040800F2
:10000000981D00207D020008A92300083123000864
:10001000A5230008F91E0008EF30000800000000CA
:100020000000000000000000000000007929000826
:10003000AD2000080000000021280008652A000803
:10004000970200089702000897020008970200082C
:10005000970200089702000897020008970200081C
:10006000970200089702000897020008970200080C
:1000700097020008970200089702000897020008FC
:1000800097020008970200089702000897020008EC
:1000900097020008970200089702000897020008DC
:1000A00097020008970200089702000897020008CC
:1000B000C92A000897020008970200089702000862
:1000C00097020008970200089702000897020008AC
:1000D00097020008A52C00086D2D0008052E0008C9
:1000E00097020008970200089702000800F002F843
:1000F00000F0B4F80AA090E8000C82448344AAF10E
:100100000107DA4501D100F0A9F8AFF2090EBAE80B
:100110000F0013F0010F18BFFB1A43F0010318473B
:10012000584400007844000010F8013B0A4413F0E2
:10013000030408BF10F8014B1D1108BF10F8015B44
:10014000641E05D010F8016B641E01F8016BF9D133
:10015000002D15D010F8014B03F00C030C2BA1EB74
:1001600004040ABF10F8013BA4EB8314A4EB03249E
:1001700005F1010314F8016B5B1E01F8016BF9D561
:10018000914238BF10F8013BD1D3704700230024BF
:1001900000250026103A28BF78C1FBD8520728BF97
:1001A00030C148BF0B6070476E2900F07083702922
:1001B00000F0B384662903F04D84652903F04A8476
:1001C000672903F04784612903F0468403681B0A0A
:1001D00028BF41F08001692900F0C080642900F047
:1001E000BD80752900F0BA806F2900F0418478291C
:1001F00000F07F84E92900F0DB83E42900F0D88354
:10020000F52900F0D583EF2900F03E84F82900F0AD
:100210007E840368DB0928BF41F08001632901F077
:100220008980732901F08E80E32901F09980F329F8
:1002300001F09E80002070471FB501F0EBF804002C
:100240000020002103F0F0FB401C60600020002132
:1002500003F0D4FBE0601FBD10B510BD01F0ACF899
:100260001146FFF7E9FF03F091F901F085F903B4B6
:10027000FFF7F2FF03BC01F089F90000094880474D
:1002800009480047FEE7FEE7FEE7FEE7FEE7FEE778
:10029000FEE7FEE7FEE7FEE704480549054A064B90
:1002A00070470000692A0008ED0000089817002038
:1002B000981D002098190020981900201CB50C46A4
:1002C000064B7B4469460090204600F0FAFA04464B
:1002D0000020694600F008FB20461CBD23060000F4
:1002E0000FB41CB5084B06AA7B44694600900598DC
:1002F00000F0E7FA04460020694600F0F5FA2046CF
:100300001CBC5DF814FB0000FD05000070B5044640
:1003100085690068C10601D5302600E02026C007A7
:1003200007D070BDD4E9012130469047206A401CB7
:1003300020626D1EF6D570BD70B5044685690078E3
:10034000C00707D170BDD4E9012120209047206A61
:10035000401C20626D1EF6D570BD00002DE9F041F5
:100360000646002410687529314616A510D000F005
:10037000FAF9002802DA404213A507E031688A073B
:1003800001D512A502E0490704D511A5012401E019
:1003900000F0F2F900210A2206F1240709E0B0FB7F
:1003A000F2FCB0FBF2F302FB1C003030785418462C
:1003B000491C0028F3D123462A463046BDE8F041C7
:1003C00000F00CBA000000002D0000002B0000001F
:1003D000200000002DE9F05F894604464FF0000A36
:1003E000DFF874B1FB44C0F820A02046E1688847DC
:1003F000002874D0252806D0D4E901219047206A2E
:10040000401C2062F1E700265F462046E1688847ED
:100410002028054607DB312D05D2781910F8200C6D
:1004200008B10643F1E7B00701D526F00406C4F889
:100430001CA00027C4F818A02A2D09D0284602F0D5
:100440006CFE38B304EB8708303DC8F8185019E04B
:1004500059F8041B204604EB87029161E168884744
:10046000012F054618D1E069002820DA26F0200681
:100470001DE0D8F8180000EB800005EB4000303894
:10048000C8F818002046E1688847054602F045FE96
:100490000028EED1012F0AD02E2D08D12046E16888
:1004A00088477F1C0546022F46F02006C4DBA06962
:1004B000002803DA404246F00106A061F00701D0AF
:1004C00026F010066C2D0BD0682D09D04C2D39D09C
:1004D0006A2D35D0742D35D07A2D33D016E038E022
:1004E000E1682F4620468847B842054609D16C2F5F
:1004F00026D04FF48060E1680643204688470546D1
:1005000004E06C2F1AD04FF4807006430DB3A5F1B0
:100510004100192802D8203546F400664A4629468B
:10052000204626604E46FFF73FFE80B101280BD0E3
:10053000F61D26F0070000F1080956E74020E4E721
:100540008020D8E70020D6E706F104094DE72846C9
:1005500052E7206ABDE8F09F9C3E000030B505469A
:100560000B462A4613F8014B12F8010B08B1A042C2
:10057000F8D01CB1002802D06D1CF1E7284630BD30
:1005800040EA0103024630B59B0710D14FF0013419
:1005900000E008C208C91D1B9D4315EAC41FF8D01E
:1005A00013F0FF0102F8011B0DD01B0AF8E711F848
:1005B000013B002B02F8013B05D011F8013B002B59
:1005C00002F8013BF3D130BD10B5431C02E010F836
:1005D000011B71B18107FAD14FF0013202C88C1AA8
:1005E0008C4314EAC211F9D0C01A0A0603D0C01E07
:1005F00010BDC01A10BD0A0401D0801E10BD090232
:10060000FCD0401E10BD40EA010370B59B072ED1FF
:100610004FF00136042A2AD308C810C99D1B9D43F8
:10062000121F15EAC61517D0D8B2E1B2401A50EA27
:10063000056110D198B2A1B2401A50EA05410AD121
:1006400023F07F4024F07F41401A50EA052102D177
:10065000180EA0EB146070BDA342DBD018BA21BA0B
:10066000884201D9012070BD4FF0FF3070BD0AB93A
:10067000002070BD10F8013B11F8014B63B1A3429B
:100680000AD1521E08D010F8013B11F8014B1BB1E2
:10069000A34201D1521EEDD1181B70BD4FF00002D4
:1006A0000429C0F0128010F0030C00F04382CCF15A
:1006B000040CBCF1020F18BF00F8012BA8BF20F8F2
:1006C000022BA1EB0C0100F035BA5FEAC17C24BF1C
:1006D00000F8012B00F8012B48BF00F8012B7047F0
:1006E0004FF0013C50F8042B51F8043B9A4221D1C1
:1006F000A2EB0C03934313EACC1317D150F8042B4D
:1007000051F8043B9A4215D1A2EB0C03934313EA30
:10071000CC130BD150F8042B51F8043B9A4209D169
:10072000A2EB0C03934313EACC13DBD04FF0000091
:10073000704700BFD01A01BAB1FA81F101F0180177
:1007400022FA01F0CB40C1F12001DBB2C0B2C01AE5
:100750002CFA01F3D11A914311EAC311E6D1704783
:1007600070477047704709684A0501D540B2704725
:10077000C905FCD500B2704709684A0501D5C0B269
:100780007047C905FCD580B2704770B50C46054668
:10079000012A05D02878800600D5EA69002302E006
:1007A000012305E05B1C934202D2E05C0028F9D1F2
:1007B000A869E618C01AA861286A18442862284661
:1007C000FFF7A4FD04E0D5E9012114F8010B9047DF
:1007D000B442F8D32846FFF7AFFD70BD2DE9F047CE
:1007E0000D4699469246044600F1240801688806A1
:1007F00004D5E06921F01001216000E00120A84249
:1008000001DD471B00E00027A1697A1902EB09000E
:10081000081AA0612078C00602D42046FFF776FDB2
:10082000002608E0D4E901211AF806009047206A62
:10083000401C761C20624E45F4DB2078C0060AD5A9
:100840002046FFF763FD06E0D4E901213020904700
:10085000206A401C2062381EA7F10107F4DC07E083
:10086000D4E9012118F805009047206A401C206255
:10087000281EA5F10105F3DC2046FFF75DFD207879
:10088000000602D50220BDE8F0870120FBE71168D1
:100890000268006A530501D508700AE0D30501D546
:1008A000088006E0130603D5C217C1E9000200E084
:1008B000086001207047000001694A1C0261087845
:1008C000704700B58FB0CDE9013100210591054990
:1008D0007944CDE9031011466846FFF77BFD0FB060
:1008E00000BD0000E5FFFFFF0A6802F8010B0A6087
:1008F000704700002DE9FF5F15468A460446DFF881
:10090000AC80F8440027D8E900103E46CDE900103D
:1009100010E03AF816106A4602A800F02DFD411CBE
:1009200007D02178890603D5E269391891420DD89C
:100930000744761C2078800602D5E069B84205DDC0
:10094000AE42E6DB3AF816000028E2D1A069C01BEF
:10095000A0612046FFF7DAFCD8E90010CDE90010CD
:10096000002017E03AF818106A4602A800F004FDCB
:10097000B0F1FF3F81460BD000250DF1080B05E0DB
:10098000D4E901211BF8050090476D1C4D45F7D3B4
:1009900008F10100B0428046E4DB206A384420625E
:1009A0002046FFF7C9FCBDE8FF9F00009239000018
:1009B0002DE9F0418046D21D22F007020025D2E940
:1009C0000002F52915A614D0011E72F1000106DA05
:1009D0000023D0EB030063EB020211A608E0D8F875
:1009E00000108B0701D50FA602E0490701D50EA61E
:1009F00001251146002408F1240704E000F0BFF8A7
:100A000030323A55641C50EA0102F7D12B46324687
:100A100021464046BDE8F041FFF7E0BE000000007F
:100A20002D0000002B0000002000000030B4002149
:100A300000F1240408E002F00705D208303542EA4C
:100A40004372DB086554491C52EA0305F3D104687C
:100A5000002310A2250708D504F020040C4304D07D
:100A6000C46901230CA2641EC46130BCFFF7B6BE8A
:100A700010B5044621461068FFF77EFE0246204668
:100A8000BDE810400023D1E7D21D22F00701D1E9D3
:100A90000023CBE70000000030000000F0B40D465A
:100AA0000188090502D5214C7C4402E01F4C7C449E
:100AB0000E34002100F1240608E002F00F071209AD
:100AC000E75D42EA03721B097754491C52EA0307A7
:100AD000F3D102780023120704D5702D06D009B196
:100AE000022311342246F0BCFFF778BE01231034F4
:100AF000F8E770B504460D4621461068FFF73CFE46
:100B0000024629462046BDE870400023C6E7D21DB4
:100B100022F00703D3E90023C0E70368126843F01B
:100B2000200303600823C3610023B7E7F437000004
:100B30004FF0000200B5134694469646203922BF76
:100B4000A0E80C50A0E80C50B1F12001BFF4F7AFC1
:100B5000090728BFA0E80C5048BF0CC05DF804EBA3
:100B6000890028BF40F8042B08BF704748BF20F811
:100B7000022B11F0804F18BF00F8012B704730B5E1
:100B8000B0F10A024FEA900E71F100034EEA817E45
:100B9000B0EB0E0061EB91014FEA101E4EEA017EB0
:100BA00010EB0E0041EB11114FEA102E4EEA016ED0
:100BB00010EB0E0041EB11214FEA104E4EEA014EB0
:100BC00010EB0E0041EB1141401841F100014FEADA
:100BD000D00040EA41704FEAD10110EB80054FEAA6
:100BE000810444EA907444EB01046D1944EB04045D
:100BF000521BA3414FF0000348BF0A3200D530BD5D
:100C0000401C41F1000130BD70472DE9FF4F0C46FB
:100C10001E464FF0FF378BB0D2E90001DDF860804F
:100C20000A908A46C1F30A5505B93D460021084697
:100C30004FF00000BAF1000F00F4400005DA00EBBD
:100C400080004FF4400101EA50004FEA9059B9F199
:100C5000010F00DDB9460A9850EA4A000ED044F66A
:100C60001050A5F2FF3545432F14B8F1000F1ED0E8
:100C70007542291E1EDDC9F100021CE0B8F1010F0A
:100C80004FF0000001D0302103E0F24305E0215491
:100C9000401CB042FBDB30460022002121540B995E
:100CA000C1F80880C1E900200FB0BDE8F08FBD1B7E
:100CB0006D1CDEE74A4600DA694206A800F0EEFB4A
:100CC00006AB93E8070003AB83E8070050460A9998
:100CD00000F063FC8DE80700A0F500501F3800907D
:100CE0000398002D09DD42F21F014A46084403A97A
:100CF0000390684600F0C2FE08E0A0F500504A46A6
:100D00001F3803A90390684600F0CCFE8DE8070069
:100D10000004000C03D04FF0FF30410800E0104603
:100D2000B8F1000F03D00022009215461EE0751E98
:100D300005D4FFF724FF303262556D1EF9D5B34656
:100D40000122084302D000227F1C04E020783028D2
:100D500001D100227F1E002A099786D01DE0112DA7
:100D600007DAFFF70CFF303262556D1C50EA0102C2
:100D7000F5D1084302D00098C8B10EE00021681EEA
:100D800005E0235C625C63542254401E491C81428E
:100D9000F7DBAB46A81B401E0990002004F80B00AF
:100DA0000B98099AC0F80880C0E9002B7CE711264F
:100DB0004FF0000859E72DE9F04F88460446D21D50
:100DC00022F0070191B0D1E90001CDE90A0102F05A
:100DD00090F902460B98C00F01D02D2007E0206843
:100DE000810701D52B2002E0202101EAC000032A5F
:100DF000099001D0072A05DB03464146204600F052
:100E00000DFB0BE12078800601D5E06900E00620AB
:100E1000B8F1650F814606D0B8F1660F18D0B8F169
:100E2000670F70D131E00020B9F1110F009001DBA4
:100E3000112301E009F101030AAA01A90CA8FFF797
:100E4000E4FEDDE90C70002609F10105834647E068
:100E500001204B4600904FF000470AAA01A90CA8B8
:100E6000FFF7D3FEDDE90DB00C995D46002610B901
:100E700009F101000D18B9EB050003D4C0F1FF36EC
:100E800009F10105A5EB09002BE0B9F1010F01DA29
:100E90004FF001090020B9F1110F0090484601DD23
:100EA000112300E003460AAA01A90CA8FFF7ADFE32
:100EB000DDE90C704D4600268346207800070AD4F1
:100EC000AB4500DA5D4601A8012D04DD411911F89A
:100ED000011C302907D04F4502DA17F1040F04DA5C
:100EE000012082460FE06D1EEEE7002F02DCED1BB5
:100EF0003E4403E0781CA84200DD7D1CB81B00F1D5
:100F0000010A4FF000472078000703D4AA4501DB0F
:100F10004FF0FF3A0021B7F1004F0DF143088DF873
:100F2000431024D002202B23002F01DA7F422D23EF
:100F30000A21021EA0F1010000DC5FB197FBF1FC69
:100F400097FBF1F201FB1C7C17460CF1300C08F802
:100F500001CDEEE7A8F1010003702188090501D554
:100F6000452100E06521A0F1010800F8011C099865
:100F70000FA9A1EB0807FF1D00B10120411901EBEA
:100F8000EA70A1693844081A401EA0612078C006A2
:100F900002D42046FFF7BAF9099828B1D4E9012113
:100FA0009047206A401C20622078C00622D5204647
:100FB000FFF7ACF91EE0002E04DBB34502DD01A80B
:100FC000805D00E03020D4E901219047206A401C78
:100FD0002062761CAAF101005FEA000A0AD100F043
:100FE00019FAC0680168405CD4E901219047206A81
:100FF000401C2062281EA5F10105DCDC07E0D4E9D5
:10100000012118F8010B9047206A401C2062381E0D
:10101000A7F10107F3DC2046FFF78EF9032011B09A
:1010200043E600002DE9F04F04460D46D21D22F0A4
:10103000070089B0D0E9009248461746394602F0C9
:1010400058F80246F80F01D02D2307E020688107E9
:1010500001D52B2302E0202101EAC0038DF82030C6
:101060000BB1012000E00020032A824601D0072AAC
:1010700004DB2946204600F0D1F93DE120788006C6
:1010800001D40D2500E0E569C7F30A560D2D49DAB4
:1010900000214FEA175B08464FF00000002F00F4D4
:1010A000400007DA00EB80004FF4400100EBD07005
:1010B00001EA60008115012901DD4FF0FF310022B6
:1010C0004FEA850CBCF1180F06D31346ACF118009B
:1010D0004FF08052C24003E04FF4801323FA0CF328
:1010E0000CF10C0CBCF1200F04D3ACF1200C09FA6C
:1010F0000CF001E007FA0CF000294FF0004801DD88
:1011000018B90FE00ED140450CD319EB02095F412D
:1011100021B9404502D19F4329EA0209BBEB175F81
:1011200000D0761C2088000502D57B48784402E078
:1011300079487844193808AA302302F80A30037C29
:101140000AF10101002E0AF1020A53546A4602DC38
:101150004FF0300101E04FF031014FF001088DF800
:10116000001002D0A6F2FF3603E059EA470100D092
:101170006A4E002D02DC2178090704D54FF00208E1
:101180002E218DF80110C44600210BE0C7F3034364
:101190003F01C35C491C6D1E02F80830052908F1A7
:1011A000010801DA002DF1DC00210CE000EB1973DD
:1011B000491C1B786D1E082902F808304FEA0919EE
:1011C00008F1010801DA002DF0DC2178890602D54A
:1011D00014E0A8F10108E04505DD02EB080111F873
:1011E000011C3029F5D0B8F1000F07DD02EB080132
:1011F00011F8011C2E2901D1A8F10108002D05DDEF
:101200003E2102F808106D1E08F10108407C002EF6
:1012100002F8080008F1010804DA2D20764202F8ED
:10122000080002E02B2002F808000A214FF47A702F
:10123000864208F101080BDB96FBF0F3303302F82D
:10124000083096FBF0F308F1010800FB136601E09B
:10125000642E0CDB642096FBF0F3303302F8083088
:1012600096FBF0F308F1010800FB136601E00A2E7B
:1012700006DB96FBF1F0303002F8080008F10108B7
:1012800096FBF1F001FB1060303002F80800A16914
:1012900008F1010808EB050202EB0A00081AA06138
:1012A0002078C00602D42046FFF730F8216A08AE45
:1012B00001EB0A00206204E0D4E9012116F8010BD9
:1012C0009047BAF1010AF7D22078C00602D520462D
:1012D000FFF71CF86E4609E016F8010B3E280FD008
:1012E000D4E901219047206A401C2062B8F101082E
:1012F000F2D22046FFF720F809B00320BDE8F08FB6
:10130000206A2844206203E0D4E90121302090477C
:101310006D1EEBD3F8E70000AB31000002FCFFFFCD
:1013200010B5436913B1AFF3008001E0FFF72DFA68
:10133000012010BD127800F124010A7000224A70C9
:101340000122EDE711684FF0FF32E9E710B543697C
:1013500013B1AFF3008001E0FFF7CCFA012010BD1C
:10136000128800F1240182840022C2840122EDE768
:1013700011684FF0FF32E9E770B516460C46054696
:1013800000F040F8036893F80101012806D0FF2C13
:101390000FD8185D68B101202C7070BDD3F807011B
:1013A0003246214603F2071303442846BDE8704045
:1013B00018474FF0FF3070BD754600F0E3F8AE46B9
:1013C00005006946534620F00700854618B020B551
:1013D000FEF762FFBDE820404FF000064FF0000727
:1013E0004FF000084FF0000B21F00701AC46ACE8CD
:1013F000C009ACE8C009ACE8C009ACE8C0098D463A
:101400007047000010B500F005F8001D10BD00BFCA
:101410001926000000487047541700202DE9F041BC
:101420001F46044603260168072A01F4006004DB16
:1014300008B116A505E016A503E008B115A500E062
:1014400015A521F010002060A069C01EA0610FB199
:10145000401EA0612046FEF759FF4FB1D4E901219B
:1014600038469047206A401C2062C01C206206E07B
:10147000206AFAE7D4E9012115F8010B9047761E9E
:10148000F8D22046FEF758FFBDE8F0814E414E00ED
:101490006E616E00494E4600696E66002DE9F047A8
:1014A000814616468AB0334878440DC88DE80D0051
:1014B00030487844801C03AC0DC884E80D0041F628
:1014C0009B300844372190FBF1F290FBF1F5A5F138
:1014D000800501FB12041B3C02D56442012000E0A0
:1014E0000020DFF890A080460027FA44AAF1BE0A47
:1014F0000DE0E00709D03246684607EB47010AEBEA
:10150000810100F0CFFA8DE8070064107F1C002CE9
:10151000EFD1184F7F44AC3F18E0E80714D007EB39
:1015200004100DF1180A90E80E008AE80E00C06859
:10153000F04201D198190890324606A903A800F09C
:10154000B1FA03AB83E807006D10641C002DE4D1F1
:1015500032466946B8F1000F03A802D000F08EFAB7
:1015600001E000F09FFAC9E90001C9F808200AB0BB
:10157000BDE8F087C02E00000446AFF3008020468F
:10158000FEF775FE00487047341700200149182007
:10159000ABBEFEE72600020070475FEA400C08BFC2
:1015A00091F0000F4FEA8C234FEAC12243EA5151D8
:1015B0004FEA1C5018BF00F5F0404FEA300018BF4A
:1015C00041F000415FEA6C5C00F02980BCF1FF3F14
:1015D00008BF40F080407047130C06BF12044FF064
:1015E000100C4FF0000C130E04BF12020CF1080C8B
:1015F000130F04BF12010CF1040C930F04BF9200EF
:101600000CF1020CD30F04BF52000CF1010C114677
:101610004FF00002A0F11F00A0EB0C00704711F08A
:10162000004F08BF704731F000413FF4D5AF0B0CBD
:1016300006BF09044FF0100C4FF0000C0B0E04BF56
:1016400009020CF1080C0B0F04BF09010CF1040C8A
:101650008B0F04BF89000CF1020CCB0F04BF4900B3
:101660000CF1010CCCF12003A0EB0C0022FA03F3E7
:1016700002FA0CF241EA030100F10100704720F088
:101680007F4C80EA030023F07F47ACEB070303F5B0
:101690007C5300F0004003F1FF032DE980494FEA3D
:1016A000154B09B44FEA144325EA0B4E24EA0348CC
:1016B0000FF2042606EB132749083E785FEA320250
:1016C00003FB0667C7F5000707FB06F64FEA54372A
:1016D0004FEAD64606F1020607FB066CCCF1005C29
:1016E0004FEA1C472CEA074C07FB06F40CFB06F5F7
:1016F00004EB15464FEA961634BF00204FF0004029
:101700004FEAD13706FB07FC4FEA1C4C0CFB0BF7EA
:10171000D21B03FB0CF761EB07010CFB0EF7B0EBE0
:10172000074072EB17420CFB08F734BFA2EB0742ED
:10173000B2EB074261EB17414FEA0C444FEA9107C5
:1017400006FB07FC4FEA1C4C0CFB0BF7B0EBC74049
:1017500072EB573203FB0CF734BFA2EBC742B2EB7C
:10176000C74261EB57310CFB0EF7B0EBC70072EBD1
:1017700057720CFB08F734BFA2EBC702B2EBC702EB
:1017800061EB5771039F4FEA816141EA921104EBCB
:10179000CC044FEAD1374FEA826206FB07FC42EAEB
:1017A00090124FEA80604FEA1C4C0CFB0BF7D21BE7
:1017B00003FB0CF761EB07010CFB0EF7B0EB0740E6
:1017C00072EB17420CFB08F734BFA2EB0742B2EBF7
:1017D000074261EB17414FEA8C554FEA910704EB42
:1017E0009C2406FB07FC4FEA1C4C0CFB0BF7B0EBF0
:1017F000C74072EB573203FB0CF734BFA2EBC74272
:10180000B2EBC74261EB57310CFB0EF7B0EBC700F0
:1018100072EB57720CFB08F734BFA2EBC702B2EBB6
:10182000C70261EB577115EB4C254FEA816141EA24
:1018300092114FEA82624FEAD13742EA901206FBD8
:1018400007FC44F100044FEA80604FEA1C4C0CFB9B
:101850000BF7D21B03FB0CF761EB07010CFB0EF738
:10186000B0EB074072EB17420CFB08F734BFA2EB5A
:101870000742B2EB074261EB174115EB1C154FEA2B
:10188000813141EA92414FEA823242EA90424FEA84
:1018900080304FEA0C7644F1000448EA03434EEAF4
:1018A0000B484FF0000EB2EB080C71EB030724BF9E
:1018B000624639464EEB0E0E4FF0000B00185241B7
:1018C00049414BEB0B0BB2EB080C71EB03077BF1BF
:1018D000000B24BF624639464EEB0E0E4FF0000B54
:1018E0000018524149414BEB0B0BB2EB080C71EB6A
:1018F00003077BF1000B24BF624639464EEB0E0E08
:1019000051EA020718BF46F0010616EB0E7655F1B4
:10191000000254F1000103D5BDE88901BDE800884B
:10192000BDE88901BDE80048B619524141EB01010B
:10193000A3F10103704780807F7E7D7C7B7A79787C
:10194000777676757473727171706F6E6E6D6C6C84
:101950006B6A6A6968686766666564646363626126
:101960006160605F5F5E5E5D5D5C5C5B5B5A5A59A7
:101970005958585757565655555554545353525213
:101980005251515050504F4F4F4E4E4D4D4D4C4C6B
:101990004C4B4B4B4A4A4A494949484848474747B4
:1019A00047464646454545444444444343434342F1
:1019B000424242414141002B26D4770021D01CB540
:1019C0004FEA370703B44FF010004FF010014FF00B
:1019D00000000FBCBDE810400BF1010BBBF1010F83
:1019E00008BF5FEA170722BF12F1010211F10101DE
:1019F0004FF0004143F1000300F0004043EA0000D3
:101A00007047F9D35708DAE746EA064613F1400F64
:101A10004FEA16461FDD13F1200FDFBF16430A46BB
:101A2000002120335B42C8D0C3F1200746EA0646B6
:101A300002FA07F74FEA164646EA0706C3F12007FF
:101A400022FA03F201FA07F721FA03F14FF000033B
:101A500042EA0702B1E746EA020646EA06464FEACC
:101A6000164646EA0106BCBF46EA0646360C4FF06B
:101A700000034FF000024FF000019EE72DE9C0483F
:101A8000934630B491E8380007C831EA400C48BFAB
:101A900034EA430C03D5FFF7F2FDFFF78CFFF0BCEF
:101AA000BDE800882DE9C048934630B491E838007D
:101AB00007C810F0804F08BF13F0804F03D100F02B
:101AC00005F8FFF778FFF0BCBDE8008820F07F47FD
:101AD00080EA030023F07F4C07EB0C03A3F57C5353
:101AE00000F00040A3F1FE0392F0000F00F0B3807D
:101AF00095F0000F00F077802DE901494FEA114081
:101B00004FEA144621EA004800FB06FC24EA064797
:101B100008FB06F607FB08F800FB07F718EB06487A
:101B20004CEB164C4FEA124B18EB07484FEA1546A0
:101B30004CEB174022EA0B4E0BFB06FC25EA06474E
:101B40000EFB06F607FB0EFE0BFB07F71EEB064E21
:101B50004CEB164C4FF000061EEB074E4CEB174BB0
:101B600018EB0B0840F1000018EB0E0B58EB0008C7
:101B700040F100008F1A4FF000013CBFC943661BC3
:101B800014BFB5EB040C00213CBFC943F61B4FEA60
:101B900017444EEA8E0E27EA04454FEA1C4704FB21
:101BA00007622CEA074C05FB07F70CFB05F604FB64
:101BB0000CFC16EB074642EB174216EB0C4642EBC9
:101BC0001C421BEB060658EB0202414146EA9E0608
:101BD00001D5BDE80189B619524141EB0101A3F1DC
:101BE0000103BDE801894FEA14454FEA114724EA91
:101BF000054621EA074C05FB07F406FB07F70CFB3B
:101C000006F105FB0CFC11EB074144EB17444FEACE
:101C1000124711EB0C4144EB1C4422EA074C05FB34
:101C200007F206FB07F70CFB06F605FB0CFC16EBB0
:101C3000074642EB174216EB0C4642EB1C456A186E
:101C400054F1000148BF7047B619524141EB010100
:101C5000A3F10103704795F0000F37D04FEA11420E
:101C60004FEA144721EA024624EA074C02FB07F137
:101C700006FB07F70CFB06F402FB0CFC14EB074415
:101C800041EB17414FEA154714EB0C4441EB1C4163
:101C900025EA074C02FB07F506FB07F70CFB06F6E7
:101CA00002FB0CFC16EB074645EB174516EB0C4602
:101CB00045EB1C42121951F1000148BF7047B6199B
:101CC000524141EB0101A3F1010370474FEA144572
:101CD0004FEA114724EA054621EA074C05FB07F1C4
:101CE00006FB07F70CFB06F24FF0000605FB0CFCA9
:101CF00012EB074241EB174112EB0C4251EB1C4136
:101D000048BF7047921841EB0101A3F101037047EE
:101D100010B502226CA16D48FEF775FC00287DD13C
:101D20000024C6E069490819012269490968FEF7DB
:101D30006AFC10BB00BF2046611CCCB26349085C42
:101D40003A28F8D1601C085C2C280AD0601C085C7A
:101D50003038095D303901EB810100EB41005D490C
:101D600008705A49601C085C2C2804D10846005DA4
:101D7000303858490870A01CC4B2544908190122CF
:101D800055490968FEF73FFCA0B900BF2046611C19
:101D9000CCB24E49085C3A28F8D1601C085C303857
:101DA000095D303901EB810100EB41004B490870BE
:101DB000A01CC4B245490819012249490968FEF727
:101DC00022FCA0B900BF2046611CCCB23F49085C90
:101DD0003A28F8D1601C085C3038095D303901EBD5
:101DE000810100EB41003F490870A01CC4B2374993
:101DF000081901223C490968FEF705FC48BB00BFF1
:101E00002046611CCCB23149085C3A28F8D108461A
:101E1000005D30384FF47A71484300E052E02B4ABD
:101E2000611C515C303901EBC10202EB011100EB86
:101E30008101264AA01C105C303800EB800001EBC9
:101E40004001E01C105C3038084428490880201DFF
:101E5000C4B21E490819012225490968FEF7D3FBBF
:101E600038BB00BF2046611CCCB21849085C3A2838
:101E7000F8D10846005D30384FF47A714843134A70
:101E8000611C515C303901EBC10202EB011100EB26
:101E900081010E4AA01C105C303800EB800001EB81
:101EA0004001E01C105C3038084412490880201DB5
:101EB000C4B22046611CCCB20449085C00287FF4FF
:101EC00031AF00BF10BD0000763A000012140020B0
:101ED00048000020040000205000002009000020DD
:101EE0005C0000200A0000206000002002000020AA
:101EF0004C0000200600002000BFFEE710B50D22B8
:101F000031A13548FEF77FFB00285CD133480168DA
:101F10003148FEF723FB28B131A12F4801F0C2F967
:101F200033490870334801682B48FEF717FB28B186
:101F300031A1294801F0B6F93349087033480168E6
:101F40002548FEF70BFB28B131A1234801F0AAF97F
:101F500033490870334801681F48FEF7FFFA28B17B
:101F600031A11D4801F09EF93349087033480168DA
:101F70001948FEF7F3FA28B131A1174801F092F998
:101F80003349087033A11448FEF7E8FA28B134A1A8
:101F9000114801F087F93649087036A10E48FEF75E
:101FA000DDFA28B136A10C4801F07CF937490870F8
:101FB00037A10948FEF7D2FA28B138A1064801F046
:101FC00071F93949087010BD2B4D51545453554285
:101FD000524543563A000000BA1100206400002028
:101FE000224C45445F7374617465223A000000001E
:101FF000210000206C00002022686F745F73746100
:102000007465223A000000002300002068000020D0
:1020100022636F6C645F7374617465223A00000020
:1020200024000020700000202266616E735F7374CC
:10203000617465223A000000220000207400002034
:1020400022737465616D5F7374617465223A000078
:102050002500002073797374656D6D6F64650000F1
:102060002273797374656D6D6F6465223A000000A8
:102070000800002074656D705F6D696E00000000DF
:102080002274656D705F6D696E223A002600002033
:1020900074656D705F6D6178000000002274656D7D
:1020A000705F6D6178223A002700002070470000C1
:1020B00000B58DB04FF416711E48FEF7EFFA1E48BA
:1020C00000781E4909681E4A12781E4B1B68CDE92C
:1020D0000832CDE90A101C4800781C4909681C4ADE
:1020E00012781C4B1B68CDE90432CDE906101A4862
:1020F00001881A4800681A4A12881A4B1B68CDE9F1
:102100000032CDE9020118480378184802681848DF
:102110000168184801F06AFBC82001F0E6F816A132
:102120000448FEF7DDFA10B901200DB000BD002013
:10213000FBE70000BA110020270000205800002013
:1021400026000020540000200A0000205C0000202F
:102150000900002050000020020000206000002044
:10216000060000204C000020040000204800002051
:1021700040000020EC4300084552524F520000003E
:102180002DE9F0410246002500260020002300240E
:10219000002791F803C00CF00F0591F803C00CF074
:1021A000100CBCF1000F03D091F802C04CEA0505F9
:1021B00091F800C0BCF1000F31D0146800202BE072
:1021C0004FF0010C0CFA00F3B1F800C00CEA030662
:1021D0009E4220D183004FF00F0C0CFA03F7BC4352
:1021E00005FA03FC4CEA040491F803C0BCF1280F83
:1021F00006D14FF0010C0CFA00FCC2F814C00AE042
:1022000091F803C0BCF1480F05D14FF0010C0CFA56
:1022100000FCC2F810C0401C0828D1D31460B1F8EB
:1022200000C0BCF1FF0F34DD546800202EE000F147
:10223000080C4FF0010808FA0CF3B1F800C00CEAE2
:1022400003069E4221D183004FF00F0C0CFA03F7D6
:10225000BC4305FA03FC4CEA040491F803C0BCF14A
:10226000280F05D100F1080C08FA0CF8C2F8148008
:1022700091F803C0BCF1480F07D100F1080C4FF0F2
:10228000010808FA0CF8C2F81080401C0828CED3C8
:102290005460BDE8F0810000F0B50A460023002438
:1022A0000021002500F00046B6F1004F02D11D4E7E
:1022B000F16901E01B4E7168C0F3034583B200F47D
:1022C0004016B6F5401F08D121F07061154E7668B2
:1022D00026F07066134F7E6012E000F48016B6F5AB
:1022E000801F06D1032606FA05F4A14341F0706170
:1022F00006E0460D360103FA06F6B14341F070617F
:1023000022B1460D360103FA06F6314300F00046CD
:10231000B6F1004F02D1034EF16101E0014E716050
:10232000F0BD00000000014041617047016170474D
:1023300000BFFEE74CF6CC40014908607047000042
:102340000030004010B500F013F810BD70B5054620
:102350000C4645F2555000F01FF8284600F010F8E2
:10236000A0B200F013F800F003F8FFF7E3FF70BD30
:102370004AF6AA200149086070470000003000407A
:102380000149486070470000003000400149886002
:1023900070470000003000400149086070470000AD
:1023A0000030004000BFFEE77047000070B500211C
:1023B00000230F22C47804B3154C246804F4E064AD
:1023C000C4F5E064210AC1F10403CA40447804FA68
:1023D00003F184781440214309010E4C0678A1557D
:1023E000047804F01F050124AC4005786D11AD00A0
:1023F00005F1E025C5F8004109E0047804F01F0567
:102400000124AC40044D0678761145F8264070BD95
:102410000CED00E000E400E080E100E0024901434F
:10242000024A1160704700000000FA050CED00E060
:1024300070B5002418E004F1B000002100F08DF91F
:102440000021084600F089F90021102000F085F9EC
:10245000002505E00121002000F07FF9681CC5B2CD
:10246000802DF7DB601CC4B2082CE4DB70BD0000DB
:1024700010B540210748FFF759FF80210548FFF7B5
:1024800055FF80210348FFF74FFF40210148FFF728
:102490004BFF10BD000C014010B540210548FFF76F
:1024A00045FF80210348FFF73FFF80210148FFF7E8
:1024B0003DFF10BD000C014010B540210348FFF75F
:1024C00035FF40210148FFF72FFF10BD000C0140F0
:1024D00008B50121092000F0C5F901214248FFF7A4
:1024E000DBFEC020ADF8000010208DF803000320B3
:1024F0008DF8020069463D48FFF742FEC0213B4887
:10250000FFF714FF4FF4487000F0EFFE0021AE20FB
:1025100000F023F90021084600F01FF900211020E7
:1025200000F01BF90021402000F017F90021B02035
:1025300000F013F90021812000F00FF90021FF20A5
:1025400000F00BF90021A12000F007F90021A620DE
:1025500000F003F90021A82000F0FFF800213F203F
:1025600000F0FBF80021C82000F0F7F80021D3208C
:1025700000F0F3F80021084600F0EFF80021D52024
:1025800000F0EBF80021802000F0E7F80021D820CF
:1025900000F0E3F80021052000F0DFF80021D92049
:1025A00000F0DBF80021F12000F0D7F80021DA205C
:1025B00000F0D3F80021122000F0CFF80021DB203A
:1025C00000F0CBF80021302000F0C7F800218D206A
:1025D00000F0C3F80021142000F0BFF80021AF2064
:1025E00000F0BBF808BD000000023000000C014004
:1025F00070B504460D4605F1B000002100F0ADF8BD
:10260000102141EA1410002100F0A7F804F00F0097
:10261000002100F0A2F870BD2DE9F04180460E4681
:102620001546002731464046FFF7E2FF00240AE046
:10263000124A02EB8511085D012100F08EF8781C2A
:10264000C7B2601CC4B2102CF2DB701CC1B2404691
:10265000FFF7CEFF00240CE06900491C074A02EB9B
:102660004111085D012100F078F8781CC7B2601CA8
:10267000C4B2102CF0DBBDE8F08100009200002015
:102680002DE9F04707460E4690469946002500245E
:10269000A8F12000C5B27F2F02DD0027B01CC6B212
:1026A000B9F1100F24D131463846FFF7A1FF0024BD
:1026B00008E004EB0511194A505C012100F04DF8C7
:1026C000601CC4B2082CF4DB701CC1B23846FFF7A2
:1026D0008FFF002409E004EB051108310F4A505C1C
:1026E000012100F03AF8601CC4B2082CF3DB12E0C0
:1026F00031463846FFF77CFF00240AE005EB450130
:10270000074A02EB4101085D012100F026F8601C38
:10271000C4B2062CF2DBBDE8F0870000843C000860
:102720005C3A00082DE9F04105460E4614461F4666
:102730000EE022783B4631462846FFF7A1FF05F11F
:102740000800C5B2782D02DD0025B01CC6B2641C9D
:1027500020780028EDD1BDE8F08170B504460D4623
:102760001DB1E0B200F046F802E0E0B200F02CF853
:1027700070BD00002DE9F04105462C46402111486E
:10278000FFF7D2FD002619E0274607F08007802FCB
:1027900004D180210B48FFF7C9FD03E080210948DF
:1027A000FFF7C2FD6006040E40210648FFF7BEFD9C
:1027B00040210448FFF7B8FD701CC6B2082EE3DBC9
:1027C000BDE8F081000C014010B50446FFF750FE53
:1027D0007820FFF7CFFFFFF76FFE0020FFF7CAFF5B
:1027E000FFF76AFE2046FFF7C5FFFFF765FEFFF71C
:1027F00053FE10BD10B50446FFF73AFE7820FFF7F0
:10280000B9FFFFF759FE4020FFF7B4FFFFF754FE72
:102810002046FFF7AFFFFFF74FFEFFF73DFE10BD6D
:102820007047000029B1064AD2690243044BDA61BD
:1028300004E0034AD2698243014BDA617047000029
:102840000010024029B1064A12690243044B1A6182
:1028500004E0034A12698243014B1A617047000089
:102860000010024029B1064A92690243044B9A6162
:1028700004E0034A92698243014B9A617047000069
:102880000010024029B1064AD2680243044BDA60C4
:1028900004E0034AD2688243014BDA6070470000CB
:1028A0000010024030B500210022002400232D4DED
:1028B0006D6805F00C0121B1042905D0082923D148
:1028C00005E0294D056022E0274D05601FE0254DFC
:1028D0006D6805F47012234D6D6805F4803402258F
:1028E00005EB92421CB9214D554305600BE01D4D8F
:1028F0006D6805F400351DB11C4D5543056002E0BF
:10290000194D5543056002E0174D056000BF00BF3B
:10291000144D6D6805F0F0010909154D6B5C0568F3
:10292000DD4045600F4D6D6805F4E061090A104D0A
:102930006B5C4568DD4085600A4D6D6805F460514B
:10294000C90A0B4D6B5C4568DD40C560054D6D687F
:1029500005F44041890B074D6B5CC568B5FBF3F589
:10296000056130BD0010024000127A0000093D00F0
:102970000B0000201B000020704710B500F002F88B
:1029800010BD00000CB50020019000903348006895
:1029900040F480303149086000BF3048006800F4DE
:1029A000003000900198401C0190009818B90198DF
:1029B000B0F5A06FF1D12948006800F4003010B1E3
:1029C0000120009001E0002000900098012843D1F0
:1029D0002348006840F0100021490860084600685C
:1029E00020F0030008600846006840F0020008601C
:1029F0001A484068194948600846406848600846D7
:102A0000406840F4806048600846406820F47C10CC
:102A100048600846406840F4E8104860084600688E
:102A200040F08070086000BF0C48006800F0007043
:102A30000028F9D00948406820F0030007494860A1
:102A40000846406840F00200486000BF0348406804
:102A500000F00C000828F9D10CBD00000010024065
:102A6000002002407047000010B51348006840F095
:102A700001001149086008464068104908400E49A5
:102A80004860084600680E4908400B49086008463F
:102A9000006820F4802008600846406820F4FE00AA
:102AA00048604FF41F008860FFF767FF4FF0006039
:102AB0000449086010BD0000001002400000FFF84B
:102AC000FFFFF6FE08ED00E010B50121880700F0D9
:102AD00037F8D8B10121880700F023F80C480078B6
:102AE000401C0B4908700B480078401C09490870CD
:102AF00007480078062805D1012007490860002012
:102B0000034908700121880700F00BF810BD000090
:102B100091000020900000208C000020CA43028217
:102B20007047CA430282704721B1028842F0010215
:102B3000028004E002884FF6FE731A40028070475C
:102B400030B50246002000230024158A05EA01035F
:102B5000958905EA010413B10CB1012000E00020C1
:102B600030BD1AB183890B43838102E083898B4393
:102B70008381704701894FF6F872114001817047D7
:102B8000002202881D4B98420ED01D4B98420BD05C
:102B9000B0F1804F08D01B4B984205D01A4B984299
:102BA00002D01A4B984204D14FF68F731A404B88CB
:102BB0001A43174B984207D0164B984204D04FF651
:102BC000FF431A40CB881A4302808B8883850B8889
:102BD00003850A4B98420BD0094B984208D00E4B04
:102BE000984205D00D4B984202D00D4B984201D12E
:102BF0000B7A03860123838270470000002C01407A
:102C0000003401400004004000080040000C004077
:102C1000001000400014004000400140004401400A
:102C2000004801401FB501210846FFF7FBFD4FF0AA
:102C30008040FFF79FFF0020ADF80A00ADF80600C6
:102C40004CF24F30ADF8080041F61F40ADF80400DB
:102C500000208DF80C0001A94FF08040FFF790FF95
:102C600001218807FFF75AFF012211469007FFF75D
:102C700078FF4FF4A060FFF7D1FB1C208DF8000017
:102C800001208DF8030003208DF8010001208DF84C
:102C900002006846FFF78AFB01218807FFF744FF1F
:102CA0001FBD000010B540F22551274800F05BF928
:102CB000002848D0012025490870234800F00EFA6A
:102CC000C1B2234802780078401C214B187021487B
:102CD000815418460078801E1E49085C0D2801D1D9
:102CE000012000E000201A490978491E194A515C68
:102CF0000A2901D1012100E000210843C0B1154992
:102D00001548FDF73DFC002111480078801E114A4E
:102D1000115400200E4908700D2210A10D48FDF736
:102D200072FC80B9002009490870FFF7E7F80AE053
:102D300040F22441044800F016F920B1024800880E
:102D40000148001D008810BD003801408B000020A4
:102D500084000020BA1100206A1600202B4D515427
:102D600054535542524543563A00000010B540F2C4
:102D70002551204800F0F7F8002839D01D4800F010
:102D8000ADF9C1B21C4802780078401C1A4B18708B
:102D90001A48815418460078801E1849085C0D288E
:102DA00001D1012000E0002013490978491E134A8F
:102DB000515C0A2901D1012100E00021084360B1E2
:102DC00000210D480078801E0C4A115400200A4949
:102DD000087001200A4908700AE040F224410548C1
:102DE00000F0C1F820B1034800880248001D0088A7
:102DF00010BD00000044004084000020BA110020F3
:102E00008A00002010B540F22551204800F0ABF8B0
:102E100000283AD01D4800F061F9C1B21C48027880
:102E20000078401C1A4B18701A48815418460078D4
:102E3000801E1849085C0D2801D1012000E0002007
:102E400013490978491E134A515C0A2901D101210D
:102E500000E00021084368B100210D480078801E81
:102E60000C4A115400200A490870FEF751FF00F087
:102E70005BF90AE040F22441044800F074F820B104
:102E8000024800880148001D008810BD004800402D
:102E9000830000201214002021B1828942F40052E4
:102EA000828104E082894DF6FF731A408281704767
:102EB00010B504462048844209D101218803FFF758
:102EC000E1FC00214FF48040FFF7DCFC32E01B48BE
:102ED000844209D101214804FFF7B4FC00214FF4DA
:102EE0000030FFF7AFFC25E01548844209D10121ED
:102EF0008804FFF7A7FC00214FF48020FFF7A2FC15
:102F000018E01048844209D10121C804FFF79AFC57
:102F100000214FF40020FFF795FC0BE00A488442A3
:102F200008D101210805FFF78DFC00214FF4801026
:102F3000FFF788FC10BD000000380140004400404D
:102F400000480040004C0040005000400246002075
:102F5000B1F5007F00D100BF13880B400BB10120F9
:102F600000E00020704770B50246002400230025D1
:102F7000002040F66A16B14200D100BFC1F34215ED
:102F800001F01F03012606FA03F3012D02D19689F1
:102F9000334006E0022D02D1168A334001E0968AC2
:102FA00033400C12012606FA04F41688344013B19B
:102FB0000CB1012000E0002070BDF0B503460024F4
:102FC00000260025002040F66A17B94200D100BF54
:102FD0001846C1F3421401F01F06012707FA06F54F
:102FE000012C01D10C3004E0022C01D1103000E0A2
:102FF00014301AB107682F43076002E00768AF4337
:103000000760F0BD2DE9F04786B005460E46002466
:10301000A24600BFA1460027B08900B100BF2F46DD
:103020002C8A4CF6FF700440F08804432C82AC8953
:103030004EF6F3100440B088318908437189084383
:103040000443AC81AC8A4FF6FF400440B08904438E
:10305000AC8201A8FFF726FC1F48874202D1DDF8A9
:1030600010A001E0DDF80CA0A88900F4004040B1F8
:103070000AEBCA0000EB0A1031684900B0FBF1F816
:1030800007E00AEBCA0000EB0A1031688900B0FBC8
:10309000F1F86420B8FBF0F004012009642101FB81
:1030A0001089A88900F4004040B1322000EBC9002B
:1030B000B0FBF1F000F00700044308E0322000EB21
:1030C00009106421B0FBF1F000F00F0004432C81E3
:1030D00006B0BDE8F087000000380140014688884E
:1030E000C0F308007047C1F308028280704700BF38
:1030F000FEE7490050EAC12018BF04204A0D18BF5E
:1031000040F0010040F2FF72B2EB515F08BF40F0A7
:103110000200012808BF0520704730380A2801D274
:10312000012070470020704710B5022251A152487B
:10313000FDF769FA002870D1002491E04E49081982
:1031400001224E490968FDF75EFAA0B900BF20468A
:10315000611CCCB24849085C3A28F8D10846005DA9
:10316000312803D101204649087002E0002044497B
:103170000870601CC4B2404908190122414909681D
:10318000FDF741FAA0B900BF2046611CCCB23A4914
:10319000085C3A28F8D10846005D312803D10120A7
:1031A0003949087002E0002037490870601CC4B239
:1031B00031490819012235490968FDF724FAA0B9F7
:1031C00000BF2046611CCCB22B49085C3A28F8D1DC
:1031D0000846005D312803D101202D49087002E026
:1031E00000202B490870601CC4B223490819012231
:1031F00028490968FDF707FAA8B900BF2046611CF5
:10320000CCB21D49085C3A28F8D10846005D312847
:1032100004D101202049087003E02AE000201E4963
:103220000870601CC4B21449081901221B490968BE
:10323000FDF7E9F9A0B900BF2046611CCCB20E49E8
:10324000085C3A28F8D10846005D312803D10120F6
:103250001349087002E0002011490870601CC4B2D4
:103260002046611CCCB20449085C00287FF466AF9C
:1032700000BF10BD733A000012140020640000204B
:10328000210000206C0000202300002068000020A6
:103290002400002070000020220000207400002084
:1032A0002500002070B506460D4629463046FDF73C
:1032B00055F90446BCB12846FDF786F90444207848
:1032C00088B1607830280BDB6078392808DC6078BA
:1032D00030382178303901EB810100EB410070BDBD
:1032E00020783038FBE700BFF9E710B50446B4F5A5
:1032F000E96F02DB4FF4E96000E02046044642F249
:10330000283060434FF0E0214861002088610120AF
:10331000086100BF4FF0E020006900F48030002811
:10332000F8D04FF0E020006920F001004FF0E021DC
:103330000861FFF707F810BD10B539A000F056FA84
:103340004FF47A70FFF7D1FF39A000F04FFA4FF435
:103350007A70FFF7CAFF4FF416713948FDF79EF9EE
:10336000C8213848FDF79AF937480268374801689C
:1033700037A000F03BFA4FF47A70FFF7B6FF4FF436
:1033800016712F48FDF78AF9C8212E48FDF786F9F6
:1033900035480368354802683548016835A000F0B3
:1033A00025FA4FF47A70FFF7A0FF4FF47A70FFF719
:1033B0009CFF4FF416712248FDF770F9C82121488F
:1033C000FDF76CF93648016836A000F00FFA4FF4AB
:1033D0007A70FFF78AFF4FF47A70FFF786FF4FF499
:1033E00016711748FDF75AF9C8211648FDF756F926
:1033F0003348016833A000F0F9F94FF47A70FFF711
:1034000074FF4FF47A70FFF770FF4FF416710C4899
:10341000FDF744F9C8210B48FDF740F9002010BD25
:1034200041542B4D515454434C45414E3D300000C6
:1034300041542B43574D4F44453D310D0A00000088
:10344000BA1100206A1600202C000020280000205D
:1034500041542B43574A41503D222573222C2225AB
:1034600073220D0A00000000380000203400002004
:103470003000002041542B4D515454555345524374
:1034800046473D302C312C222573222C22257322D5
:103490002C222573222C302C302C22220D0A0000E5
:1034A0003C00002041542B4D515454434F4E4E3D4F
:1034B000302C222573222C313838332C310D0A0060
:1034C0004400002041542B4D5154545355423D303B
:1034D0002C222573222C310D0A00000000B589B082
:1034E0004FF416711948FDF7D9F8194800781949B1
:1034F0000978194A1268194B1B78CDE90532CDE9D4
:1035000007101748006817490A7817490968174BC8
:103510001B78CDE90131CDE9032015480068009002
:10352000144803781448026814480168144800F0ED
:103530005DF9C820FFF7D9FE12A10448FDF7D0F8C5
:1035400010B9012009B000BD0020FBE7BA1100202E
:103550000800002025000020740000202200002028
:1035600070000020240000206800002023000020BC
:103570006C0000202100002064000020400000209A
:10358000844300084552524F52000000FFF74AFBA7
:10359000FEF79EFFFEF74CFF002211461046FFF794
:1035A0003BF8022200211020FFF736F8012200210B
:1035B0004020FFF731F8022200215020FFF72CF8BD
:1035C000052202210020FFF727F806220221102001
:1035D000FFF722F8042202214020FFF71DF80C22F9
:1035E00002215020FFF718F8112204210020FFF7D4
:1035F00013F8122204211020FFF70EF813220421E1
:103600002020FFF709F8142204213020FFF704F8E6
:1036100040F271210520FEF799FE4FF4E13000F0F1
:1036200035F926A000F0E2F84FF4E13000F08AF915
:10363000FFF782FE234908700846007898B92222D5
:1036400006212020FEF7E8FF232206213020FEF786
:10365000E3FF242206214020FEF7DEFF252206217B
:103660005020FEF7D9FF00BF26E01648007818B1B9
:1036700015480078012816D1222206212020FEF7C5
:10368000CBFF232206213020FEF7C6FF242206218D
:103690004020FEF7C1FF252206215020FEF7BCFF87
:1036A00000F06EF803E0FFF747FE064908700120BE
:1036B000FFF71BFE00F00AF8D7E70000B8B4CEBB56
:1036C00000000000200000200000002010B51E486F
:1036D00002881EA11F48FCF703FE10231D4A022189
:1036E0002020FFF71FF81C4802781CA11948FCF79E
:1036F000F7FD1023174A02216020FFF713F819483D
:10370000028819A11348FCF7EBFD1023114A04218C
:103710004020FFF707F81648027816A10D48FCF77D
:10372000DFFD10230B4A00212020FEF7FBFF13488A
:1037300002780AA10748FCF7D3FD1023054A0021AF
:103740006020FEF7EFFF10BD060000203A2534642C
:1037500000000000940A0020040000203A25326492
:1037600025250000020000203A2534647000000086
:10377000090000203A253264430000000A000020BE
:1037800010B51448007858B9134914A000F056F841
:103790004FF416711048FCF781FF01200D490870A5
:1037A0000120FFF7A2FD0F48006840B1FEF780FC42
:1037B0004FF47A70FFF799FD00200A4908600A4823
:1037C0000078032804D1FFF789FE0020064908701D
:1037D00010BD00008B000020BA11002025730D0AD7
:1037E000000000008C000020900000200FB438B5CD
:1037F00005A800900F48009A0499FCF75FFD00208F
:1038000000900C48FCF7E0FE85B200240DE000BFFC
:1038100040210948FFF79AFB0028F9D00548015DCF
:103820000548FFF760FC601C84B2AC42EFDB38BC9B
:103830005DF814FB620F0020003801400FB438B56A
:1038400005A800900F48009A0499FCF737FD002066
:1038500000900C48FCF7B8FE85B200240DE000BFD4
:1038600040210948FFF772FB0028F9D00548015DA7
:103870000548FFF738FC601C84B2AC42EFDB38BC73
:103880005DF814FB0A0D00200048004010B586B01A
:10389000044601210420FEF7E5FF01218803FEF71D
:1038A000E1FF2548FFF704FB4FF40070ADF810006E
:1038B00003208DF8120018208DF8130004A91F486A
:1038C000FEF75EFC4FF48060ADF8100004208DF828
:1038D000130004A91948FEF753FC00940020ADF82A
:1038E0000400ADF80600ADF80800ADF80C000C209F
:1038F000ADF80A0069461048FFF784FB01210E4825
:10390000FFF7CAFA012240F225510B48FFF755FB99
:1039100025208DF8140002208DF8150003208DF865
:10392000160001208DF8170005A8FEF73FFD0020C6
:103930000349088006B010BD00380140000801406E
:103940008800002010B586B0044601210820FEF74B
:1039500089FF01218804FEF765FF2548FFF7A8FAD3
:103960004FF48060ADF8100003208DF8120018208D
:103970008DF8130004A91F48FEF702FC4FF4006005
:10398000ADF8100004208DF8130004A91948FEF7C3
:10399000F7FB00940020ADF80400ADF80600ADF888
:1039A0000800ADF80C000C20ADF80A00694610487C
:1039B000FFF728FB01210E48FFF76EFA012240F2C3
:1039C00025510B48FFF7F9FA27208DF81400022043
:1039D0008DF8150003208DF8160001208DF81700D2
:1039E00005A8FEF7E3FC00200349088006B010BDDF
:1039F00000480040000C01408600002010B500295E
:103A00000AD00878002807D005487844FCF768FEFB
:103A1000002801D0002010BD0248784410BD0000ED
:103A20008E0B0000860B000010B500290AD0087824
:103A3000002807D005487844FCF752FE002801D042
:103A4000002010BD0248784410BD00007E0B00002D
:103A5000760B0000FDF7AFB9FDF7E4BA00000000F7
:103A600000000000002F0000000007000700001405
:103A70007F147F1400242A7F2A1200626408132313
:103A800000364955225000000503000000001C22AA
:103A90004100000041221C000014083E08140008E8
:103AA000083E0808000000A0600000080808080898
:103AB000000060600000002010080402003E514930
:103AC000453E0000427F40000042615149460021CE
:103AD00041454B31001814127F10002745454539E8
:103AE000003C4A4949300001710905030036494943
:103AF000493600064949291E0000363600000000FC
:103B00005636000000081422410000141414141446
:103B100000004122140800020151090600324959EF
:103B2000513E007C1211127C007F49494936003E0B
:103B300041414122007F4141221C007F49494941C6
:103B4000007F09090901003E4149497A007F0808C0
:103B5000087F0000417F4100002040413F01007F7D
:103B600008142241007F40404040007F020C027F49
:103B7000007F0408107F003E4141413E007F09095B
:103B80000906003E4151215E007F09192946004681
:103B9000494949310001017F0101003F4040403F58
:103BA000001F2040201F003F4038403F00631408A2
:103BB000146300070870080700615149454300007D
:103BC0007F41410000552A552A55000041417F00A0
:103BD0000004020102040040404040400000010295
:103BE0000400002054545478007F4844443800387E
:103BF0004444442000384444487F00385454541806
:103C000000087E0901020018A4A4A47C007F080417
:103C100004780000447D4000004080847D00007FE7
:103C2000102844000000417F4000007C0418047804
:103C3000007C0804047800384444443800FC242400
:103C400024180018242418FC007C080404080048E8
:103C50005454542000043F444020003C4040207C09
:103C6000001C2040201C003C4030403C00442810F8
:103C70002844001CA0A0A07C004464544C441414AC
:103C800014141414000000000000000000000000E4
:103C900000000000000000F80000000000000033F9
:103CA0003000000000100C06100C060000000000A0
:103CB0000000000040C07840C0784000043F040489
:103CC0003F040400007088FC08300000001820FF4A
:103CD000211E0000F008F000E018000000211C0385
:103CE0001E211E0000F00888700000001E21232401
:103CF0001927211010160E0000000000000000001F
:103D000000000000000000E01804020000000007AE
:103D10001820400000020418E000000000402018B5
:103D200007000000404080F0804040000202010F88
:103D300001020200000000F0000000000101011F6C
:103D400001010100000000000000000080B07000D0
:103D50000000000000000000000000000001010160
:103D600001010101000000000000000000303000EF
:103D700000000000000000008060180400601806C9
:103D80000100000000E010080810E000000F102003
:103D900020100F00001010F8000000000020203F4D
:103DA00020200000007008080888700000302824D7
:103DB0002221300000300888884830000018202078
:103DC00020110E000000C02010F80000000704249D
:103DD000243F240000F808888808080000192120E2
:103DE00020110E0000E0108888180000000F11203C
:103DF00020110E0000380808C83808000000003FF5
:103E0000000000000070880808887000001C222153
:103E100021221C0000E010080810E0000000312200
:103E200022110F00000000C0C000000000000030A0
:103E300030000000000000800000000000008060F2
:103E40000000000000008040201008000001020473
:103E5000081020004040404040404000040404045A
:103E60000404040000081020408000000020100816
:103E700004020100007048080808F000000000304B
:103E800036010000C030C828E810E00007182724D9
:103E900023140B000000C038E0000000203C230287
:103EA0000227382008F8888888700000203F2020EA
:103EB00020110E00C030080808083800071820201C
:103EC0002010080008F808080810E000203F202013
:103ED00020100F0008F88888E8081000203F2020F4
:103EE0002320180008F88888E8081000203F2000E8
:103EF00003000000C0300808083800000718202020
:103F0000221E020008F808000008F808203F2101DE
:103F100001213F20000808F8080800000020203F89
:103F20002020000000000808F8080800C0808080F9
:103F30007F00000008F888C028180800203F2001F2
:103F40002638200008F8080000000000203F20204C
:103F50002020300008F8F800F8F80800203F003F63
:103F6000003F200008F830C00008F808203F20007B
:103F700007183F00E01008080810E0000F1020208C
:103F800020100F0008F808080808F000203F210161
:103F900001010000E01008080810E0000F182424B8
:103FA00038504F0008F8888888887000203F20002B
:103FB000030C3020007088080808380000382021E1
:103FC00021221C00180808F8080818000000203FEB
:103FD0002000000008F808000008F808001F202052
:103FE00020201F000878880000C838080000073823
:103FF0000E010000F80800F80008F800033C070074
:10400000073C0300081868808068180820302C03DB
:10401000032C30200838C800C83808000000203FB2
:104020002000000010080808C838080020382621A1
:1040300020201800000000FE020202000000007FA5
:1040400040404000000C30C00000000000000001B3
:104050000638C00000020202FE000000004040409E
:104060007F000000000004020202040000000000C3
:104070000000000000000000000000008080808040
:104080008080808000020204000000000000000028
:1040900000000000000080808080000000192422C1
:1040A00022223F2008F8008080000000003F1120FD
:1040B00020110E000000008080800000000E112002
:1040C00020201100000000808088F800000E1120E0
:1040D00020103F200000808080800000001F2222EE
:1040E00022221300008080F0888888180020203F5A
:1040F000202000000000808080808000006B94946D
:104100009493600008F8008080800000203F210028
:1041100000203F2000809898000000000020203FF1
:1041200020200000000000809898000000C08080DF
:10413000807F000008F8000080808000203F24027B
:104140002D302000000808F8000000000020203F6B
:10415000202000008080808080808000203F200020
:104160003F20003F8080008080800000203F2100B1
:1041700000203F200000808080800000001F202061
:1041800020201F00808000808000000080FFA12090
:1041900020110E000000008080808000000E1120A1
:1041A00020A0FF80808080008080800020203F2130
:1041B00020000100000080808080800000332424E3
:1041C00024241900008080E0808000000000001F8F
:1041D000202000008080000000808000001F202040
:1041E00020103F20808080000080808000010E3001
:1041F0000806010080800080008080800F300C0362
:104200000C300F0000808000808080000020312E64
:104210000E312000808080000080808080818E7040
:104220001806010000808080808080000021302CF2
:104230002221300000000000807C0202000000000B
:10424000003F404000000000FF00000000000000B0
:10425000FF0000000002027C800000000040403FA0
:10426000000000000006010102020404000000003A
:10427000000000000008102040800000002010080E
:104280000402010004000008000000000000000219
:10429000000100001000000000000000000000000D
:1042A000303132333435363738394142434445466C
:1042B0004030580030313233343536373839616266
:1042C00063646566403078003031323334353637D8
:1042D0003839616263646566787000303132333436
:1042E000353637383941424344454658500000007E
:1042F00002400000000000A0000000000540000097
:10430000000000C8000000000C4000000000409CBD
:1043100000000000194000000020BCBE00000000AA
:1043200034400000BFC91B8E00000004B5400000EF
:10433000504BCFD06607E2CF010000006C41000077
:104340003E8251AADFEEA73401000000D9420000EE
:10435000DCB5A0E23A301F97FFFFFFFFB445000035
:10436000FD25A0C8E9A3C14FFFFFFFFFFF3F0000ED
:104370000000008000000000FF3F000000000080FF
:104380000000000041542B4D5154545055423D30D3
:104390002C222573222C225C7B5C2225735C223A22
:1043A00025645C2C5C2225735C223A25645C2C5CC1
:1043B0002225735C223A25645C2C5C2225735C22E6
:1043C0003A25645C2C5C2225735C223A25645C2CC3
:1043D0005C2273797374656D6D6F64655C223A2538
:1043E000647D222C302C300D0A00000041542B4DEE
:1043F0005154545055423D302C222573222C225CBE
:104400007B5C2225735C223A25645C2C5C2225733C
:104410005C223A25645C2C5C2225735C223A25647C
:104420005C2C5C2225735C223A25645C2C5C222582
:10443000735C223A25645C2C5C2225735C223A254D
:10444000645C2C5C2225735C223A25647D222C302E
:104450002C300D0A000000003969686468767771B5
:104460006476716E686E7131000000003939393937
:104470003939393939000000653435353931396415
:1044800062393539343131366132646138333965F6
:104490006431616133343664000000004C45445F90
:1044A0007374617465000000636F6C645F737461A2
:1044B00074650000737465616D5F73746174650089
:1044C00066616E735F73746174650000686F745F1A
:1044D0007374617465000000636F325F76616C75A0
:1044E00065000000736F696C5F76616C7565000034
:1044F00068756D5F76616C756500000074656D7040
:104500005F76616C756500006C696768745F7661E1
:104510006C756500617474726962757465732F706F
:104520007573680048306F42625A77486D6A0000C0
:10453000677A2D332D6D7174742E696F742D6170CF
:10454000692E636F6D00000074656D705F6D696E3C
:104550000000000061747472696275746573000014
:1045600074656D705F6D6178000000006D616C694D
:104570002E6170706C790000C446000800000020B5
:10458000940A000028010008904B0008940A0020BB
:10459000041300008C0100081C0000004300000010
:1045A000F8FFFFFF0C0000000E0000000F000000ED
:1045B0002E0000001001000043000000F8FFFFFF84
:1045C0000040404040404040404041414141414026
:1045D00040404040404040404040404040404040DB
:1045E000400502020202020202020202020202026A
:1045F000022020202020202020202002020202026F
:1046000002029090909090901010101010101010C6
:1046100010101010101010101010101002020202D2
:104620000202888888888888080808080808080816
:104630000808080808080808080808080202020212
:10464000400000000000000000000000000000002A
:10465000000000000000000000000000000000005A
:10466000000000000000000000000000000000004A
:10467000000000000000000000000000000000003A
:10468000000000000000000000000000000000002A
:10469000000000000000000000000000000000001A
:1046A000000000000000000000000000000000000A
:1046B00000000000000000000000000000000000FA
:1046C00000000000C2000120050102030404300BB9
:1046D0000607080902040608000117100C191E6CD1
:1046E0004500086C44000878041258041224101283
:1046F000301412540812141C12E41412080812FC8C
:104700002012482C12600C12F03012D804129C08AF
:1047100012A80C12CC0412C00412B42C021700010F
:1047200020091060028C0000FE92010211FE201090
:104730000A04047E01407E42427E02000414427E4E
:104740004040413F011740000B104448507F40401B
:104750007F50484440200B0000FC242424FC2526E4
:104760002408F2041EF01040308F80844C5525251B
:1047700025554C80808020400620104C4754010075
:10478000051AD4040400010005110F3040F0802206
:10479000400132FF0601161E11BD510801113E10E5
:1047A00005424458C020000511C05048462010075B
:1047B000808040201807C9223F47021078FF040E6E
:1047C00010FE424242FE0042A29E82A2C2BE1E4093
:1047D0000B806F080828CF00002FC808E5A0040F41
:1047E0001002E222223E00809E9292F292929E203D
:1047F00004104F004382423E40474444447F4444B7
:1048000054E780041012100C442414040506040418
:10481000142444140C5F124101227F050512610526
:1048200040C02804FE12127D13FF910106101040B3
:10483000000E11601F80805F4020100E1010205F5E
:10484000C0100A10FF100082BAEABA83040A10826C
:104850003504101008180F04484A2AFF8A4A1A2FF4
:104860005A8A88E024067000FF1008C536FAC9018C
:104870001080180618070810FF1D04061141424C4D
:1048800040FF401007055555D5057F060711550512
:1048900040100D1010108AA96B352525ABE9080CC6
:1048A0000D1380031807201808C838CF200E14985D
:1048B000C0030C0B50040201FF4021060A112080A6
:1048C00003152281010D126004C1010510600C0E58
:1048D0001124236AAA2AAA6A2A2A2AEA0202A0041E
:1048E000100611151515FF041B1110000E11F821EB
:1048F000032F60F85F0316FFE30A1108401D5205FD
:1049000017FF00013D7F030D1180031C0604E45CCA
:1049100044C440030C0611F0909F90904003041093
:1049200010013F10107F201806914C300F30488442
:10493000801C099453321E325210001F050F13427F
:104940007E630543FF49010E12FF95040010110814
:10495000CC4A49484ACC18007F88888482E03E00CF
:104960000915121252927F00007E201005FC8484EB
:10497000FCC61624C2071124E40111C0040C143F24
:104980000020134A827E020A1320BE2004C839CEBA
:1049900007061188C2155516025C28040003043F5F
:1049A0000D11C1031C0A8444340F44847C007C63D1
:1049B0000406107C9F0C101144442424140C04FFA2
:1049C000040C14242444446205040C1222322AA646
:1049D000A26221110981013E10064222130B42BD41
:1049E0000C0611020A12234640040C0E1030AC6370
:1049F000300088C8A8998E88A8C8A0033C0A2267FE
:104A00002212128040300F82050E1271A206080A8F
:104A1000111464040CB4020242337F1004004041BC
:104A20009A0C0A110503FF0305091121410007082B
:104A30000E1010D0FF900010919690F0909493E09B
:104A40001B0403801301040122FF050914C0080997
:104A50001504E4A4A4BFA4A4E4C01D3C07224A0199
:104A600006127F8021400C0911404848E85F484801
:104A700048A0063D000308091300020B1222D20AC7
:104A8000069F3C04FC04D47D050C05107F84C536CC
:104A900080070C0F108866010063828292AB8482CB
:104AA000C1022481062E807B060C0812929EE080B3
:104AB0009EB2D280060C10120808F4949292F10073
:104AC00001F2929494F80840071D3C0522C2050F9C
:104AD0001342422106080B11702824232020202491
:104AE0002830FE0C101000C808090EE808405E507F
:104AF00050DF50505EA0070C0E11206F201C1310C9
:104B000000FE027F027E82A1081DC0071809CC00AA
:104B10000444645C47F4C10511A0180540201F201F
:104B2000DB3D40070911C01DA0050C0B11FF105003
:104B3000445465C6446454E008080F120444827F5C
:104B40000182824A562322524E826213F888010C57
:104B500009120808FF08090AC808C0060C0D12004F
:104B600010201F80402116182641F8C0031EF8BBF4
:104B70000321860F1110101F070C0F121030101F89
:104B8000088848300E014080403F200900000000A6
:04000005080000ED02
:00000001FF
